{
  "_format": "hh3-artifact-1",
  "contractName": "BasicCounterPremium",
  "sourceName": "examples/basic-counter-premium/contracts/BasicCounterPremium.sol",
  "abi": [
    {
      "inputs": [],
      "stateMutability": "nonpayable",
      "type": "constructor"
    },
    {
      "anonymous": false,
      "inputs": [
        {
          "indexed": true,
          "internalType": "address",
          "name": "resetter",
          "type": "address"
        },
        {
          "indexed": false,
          "internalType": "uint256",
          "name": "timestamp",
          "type": "uint256"
        }
      ],
      "name": "CounterReset",
      "type": "event"
    },
    {
      "anonymous": false,
      "inputs": [
        {
          "indexed": true,
          "internalType": "address",
          "name": "setter",
          "type": "address"
        },
        {
          "indexed": false,
          "internalType": "uint256",
          "name": "timestamp",
          "type": "uint256"
        }
      ],
      "name": "CounterSet",
      "type": "event"
    },
    {
      "anonymous": false,
      "inputs": [
        {
          "indexed": true,
          "internalType": "address",
          "name": "decrementor",
          "type": "address"
        },
        {
          "indexed": false,
          "internalType": "uint256",
          "name": "timestamp",
          "type": "uint256"
        }
      ],
      "name": "Decremented",
      "type": "event"
    },
    {
      "anonymous": false,
      "inputs": [
        {
          "indexed": true,
          "internalType": "address",
          "name": "incrementor",
          "type": "address"
        },
        {
          "indexed": false,
          "internalType": "uint256",
          "name": "timestamp",
          "type": "uint256"
        }
      ],
      "name": "Incremented",
      "type": "event"
    },
    {
      "inputs": [
        {
          "internalType": "uint32",
          "name": "amount",
          "type": "uint32"
        }
      ],
      "name": "antiPattern_DecryptThenAdd",
      "outputs": [],
      "stateMutability": "nonpayable",
      "type": "function"
    },
    {
      "inputs": [
        {
          "internalType": "euint32",
          "name": "threshold",
          "type": "uint32"
        }
      ],
      "name": "conditionalIncrement",
      "outputs": [],
      "stateMutability": "nonpayable",
      "type": "function"
    },
    {
      "inputs": [],
      "name": "decrement",
      "outputs": [],
      "stateMutability": "nonpayable",
      "type": "function"
    },
    {
      "inputs": [
        {
          "internalType": "bytes",
          "name": "signature",
          "type": "bytes"
        }
      ],
      "name": "getCounterIfAuthorized",
      "outputs": [
        {
          "internalType": "uint32",
          "name": "",
          "type": "uint32"
        }
      ],
      "stateMutability": "view",
      "type": "function"
    },
    {
      "inputs": [],
      "name": "getEncryptedCounter",
      "outputs": [
        {
          "internalType": "euint32",
          "name": "",
          "type": "uint32"
        }
      ],
      "stateMutability": "view",
      "type": "function"
    },
    {
      "inputs": [],
      "name": "increment",
      "outputs": [],
      "stateMutability": "nonpayable",
      "type": "function"
    },
    {
      "inputs": [
        {
          "internalType": "euint32",
          "name": "amount",
          "type": "uint32"
        }
      ],
      "name": "incrementBy",
      "outputs": [],
      "stateMutability": "nonpayable",
      "type": "function"
    },
    {
      "inputs": [],
      "name": "reset",
      "outputs": [],
      "stateMutability": "nonpayable",
      "type": "function"
    },
    {
      "inputs": [],
      "name": "safeIncrement",
      "outputs": [],
      "stateMutability": "nonpayable",
      "type": "function"
    },
    {
      "inputs": [
        {
          "internalType": "euint32",
          "name": "newValue",
          "type": "uint32"
        }
      ],
      "name": "setValue",
      "outputs": [],
      "stateMutability": "nonpayable",
      "type": "function"
    }
  ],
  "bytecode": "0x608060405234801561000f575f80fd5b506040518060400160405280601381526020017f4261736963436f756e7465725072656d69756d000000000000000000000000008152506040518060400160405280600181526020017f31000000000000000000000000000000000000000000000000000000000000008152505050335f60046101000a81548173ffffffffffffffffffffffffffffffffffffffff021916908373ffffffffffffffffffffffffffffffffffffffff1602179055506100cd5f6100f060201b60201c565b5f806101000a81548163ffffffff021916908363ffffffff1602179055506100f9565b5f819050919050565b61088c806101065f395ff3fe608060405234801561000f575f80fd5b506004361061009c575f3560e01c8063d09de08a11610064578063d09de08a1461010a578063d826f88f14610114578063e037aab01461011e578063ece117af1461014e578063fb693f771461016a5761009c565b806307d226bd146100a05780631ceb19fb146100aa5780632baeceb7146100c85780633a19d0cc146100d2578063c1589abf146100ee575b5f80fd5b6100a8610186565b005b6100b26101c0565b6040516100bf91906105eb565b60405180910390f35b6100d06101d7565b005b6100ec60048036038101906100e79190610636565b61025f565b005b6101086004803603810190610103919061068b565b610262565b005b6101126102ea565b005b61011c610372565b005b61013860048036038101906101339190610717565b6103e9565b6040516101459190610771565b60405180910390f35b6101686004803603810190610163919061068b565b6103f7565b005b610184600480360381019061017f919061068b565b6104bc565b005b6101a05f8054906101000a900463ffffffff16600161052c565b5f806101000a81548163ffffffff021916908363ffffffff160217905550565b5f805f9054906101000a900463ffffffff16905090565b6101f15f8054906101000a900463ffffffff166001610541565b5f806101000a81548163ffffffff021916908363ffffffff1602179055503373ffffffffffffffffffffffffffffffffffffffff167f07d3d85c6d0a7733349716a1b8d3410a8dcde97443dececf6a31c8f263062c594260405161025591906107a2565b60405180910390a2565b50565b61027b5f8054906101000a900463ffffffff1682610556565b5f806101000a81548163ffffffff021916908363ffffffff1602179055503373ffffffffffffffffffffffffffffffffffffffff167f38ac789ed44572701765277c4d0970f2db1c1a571ed39e84358095ae4eaa5420426040516102df91906107a2565b60405180910390a250565b6103045f8054906101000a900463ffffffff16600161052c565b5f806101000a81548163ffffffff021916908363ffffffff1602179055503373ffffffffffffffffffffffffffffffffffffffff167f38ac789ed44572701765277c4d0970f2db1c1a571ed39e84358095ae4eaa54204260405161036891906107a2565b60405180910390a2565b61037b5f61056b565b5f806101000a81548163ffffffff021916908363ffffffff1602179055503373ffffffffffffffffffffffffffffffffffffffff167f0c4f92d0724fb3d16c74d6fd66f78fe790dbfb5849f7691e9931db60bb64aad4426040516103df91906107a2565b60405180910390a2565b5f82825f9250505092915050565b5f6104115f8054906101000a900463ffffffff1683610574565b90505f61043082610422600161056b565b61042b5f61056b565b61058c565b905061044b5f8054906101000a900463ffffffff1682610556565b5f806101000a81548163ffffffff021916908363ffffffff1602179055503373ffffffffffffffffffffffffffffffffffffffff167f38ac789ed44572701765277c4d0970f2db1c1a571ed39e84358095ae4eaa5420426040516104af91906107a2565b60405180910390a2505050565b805f806101000a81548163ffffffff021916908363ffffffff1602179055503373ffffffffffffffffffffffffffffffffffffffff167f1fbe0ea9b68cecca684c521c35e9e1e63373a1b76fca487646a2ed2ebcafec904260405161052191906107a2565b60405180910390a250565b5f818361053991906107e8565b905092915050565b5f818361054e919061081f565b905092915050565b5f818361056391906107e8565b905092915050565b5f819050919050565b5f8163ffffffff168363ffffffff1611905092915050565b5f83610598578161059a565b825b90509392505050565b5f63ffffffff82169050919050565b5f819050919050565b5f6105d56105d06105cb846105a3565b6105b2565b6105a3565b9050919050565b6105e5816105bb565b82525050565b5f6020820190506105fe5f8301846105dc565b92915050565b5f80fd5b5f80fd5b610615816105a3565b811461061f575f80fd5b50565b5f813590506106308161060c565b92915050565b5f6020828403121561064b5761064a610604565b5b5f61065884828501610622565b91505092915050565b61066a816105a3565b8114610674575f80fd5b50565b5f8135905061068581610661565b92915050565b5f602082840312156106a05761069f610604565b5b5f6106ad84828501610677565b91505092915050565b5f80fd5b5f80fd5b5f80fd5b5f8083601f8401126106d7576106d66106b6565b5b8235905067ffffffffffffffff8111156106f4576106f36106ba565b5b6020830191508360018202830111156107105761070f6106be565b5b9250929050565b5f806020838503121561072d5761072c610604565b5b5f83013567ffffffffffffffff81111561074a57610749610608565b5b610756858286016106c2565b92509250509250929050565b61076b816105a3565b82525050565b5f6020820190506107845f830184610762565b92915050565b5f819050919050565b61079c8161078a565b82525050565b5f6020820190506107b55f830184610793565b92915050565b7f4e487b71000000000000000000000000000000000000000000000000000000005f52601160045260245ffd5b5f6107f2826105a3565b91506107fd836105a3565b9250828201905063ffffffff811115610819576108186107bb565b5b92915050565b5f610829826105a3565b9150610834836105a3565b9250828203905063ffffffff8111156108505761084f6107bb565b5b9291505056fea2646970667358221220ae3e9f72b58f71fca38f209c18d0fa6b1e49180bd0432cd8f20da700382058f564736f6c63430008180033",
  "linkReferences": {},
  "deployedLinkReferences": {},
  "immutableReferences": {},
  "inputSourceName": "project/examples/basic-counter-premium/contracts/BasicCounterPremium.sol",
  "buildInfoId": "solc-0_8_24-c87bbb38104db827434223d5a4ba7b195ca4c66e"
}