{
  "_format": "hh3-artifact-1",
  "contractName": "EncryptedPokerPremium",
  "sourceName": "examples/encrypted-poker-premium/contracts/EncryptedPokerPremium.sol",
  "abi": [
    {
      "inputs": [],
      "stateMutability": "nonpayable",
      "type": "constructor"
    },
    {
      "anonymous": false,
      "inputs": [
        {
          "indexed": true,
          "internalType": "uint256",
          "name": "gameId",
          "type": "uint256"
        },
        {
          "indexed": true,
          "internalType": "address",
          "name": "creator",
          "type": "address"
        },
        {
          "indexed": false,
          "internalType": "address[]",
          "name": "players",
          "type": "address[]"
        }
      ],
      "name": "GameCreated",
      "type": "event"
    },
    {
      "anonymous": false,
      "inputs": [
        {
          "indexed": true,
          "internalType": "uint256",
          "name": "gameId",
          "type": "uint256"
        },
        {
          "indexed": true,
          "internalType": "address",
          "name": "winner",
          "type": "address"
        },
        {
          "indexed": false,
          "internalType": "euint32",
          "name": "encryptedWinningHand",
          "type": "uint32"
        },
        {
          "indexed": false,
          "internalType": "euint32",
          "name": "encryptedPot",
          "type": "uint32"
        }
      ],
      "name": "GameFinalized",
      "type": "event"
    },
    {
      "anonymous": false,
      "inputs": [
        {
          "indexed": true,
          "internalType": "uint256",
          "name": "gameId",
          "type": "uint256"
        }
      ],
      "name": "GameStarted",
      "type": "event"
    },
    {
      "anonymous": false,
      "inputs": [
        {
          "indexed": true,
          "internalType": "uint256",
          "name": "gameId",
          "type": "uint256"
        },
        {
          "indexed": true,
          "internalType": "address",
          "name": "player",
          "type": "address"
        },
        {
          "indexed": false,
          "internalType": "euint32",
          "name": "encryptedHand",
          "type": "uint32"
        }
      ],
      "name": "HandSubmitted",
      "type": "event"
    },
    {
      "inputs": [
        {
          "internalType": "address[]",
          "name": "players",
          "type": "address[]"
        }
      ],
      "name": "createGame",
      "outputs": [
        {
          "internalType": "uint256",
          "name": "",
          "type": "uint256"
        }
      ],
      "stateMutability": "nonpayable",
      "type": "function"
    },
    {
      "inputs": [
        {
          "internalType": "uint256",
          "name": "gameId",
          "type": "uint256"
        },
        {
          "internalType": "address",
          "name": "player",
          "type": "address"
        }
      ],
      "name": "encryptedHandOf",
      "outputs": [
        {
          "internalType": "euint32",
          "name": "",
          "type": "uint32"
        }
      ],
      "stateMutability": "view",
      "type": "function"
    },
    {
      "inputs": [
        {
          "internalType": "uint256",
          "name": "gameId",
          "type": "uint256"
        },
        {
          "internalType": "address",
          "name": "winningPlayer",
          "type": "address"
        },
        {
          "internalType": "euint32",
          "name": "encryptedWinningHand",
          "type": "uint32"
        },
        {
          "internalType": "euint32",
          "name": "encryptedPot",
          "type": "uint32"
        }
      ],
      "name": "finalizeGame",
      "outputs": [],
      "stateMutability": "nonpayable",
      "type": "function"
    },
    {
      "inputs": [],
      "name": "gameCount",
      "outputs": [
        {
          "internalType": "uint256",
          "name": "",
          "type": "uint256"
        }
      ],
      "stateMutability": "view",
      "type": "function"
    },
    {
      "inputs": [
        {
          "internalType": "uint256",
          "name": "gameId",
          "type": "uint256"
        }
      ],
      "name": "gameInfo",
      "outputs": [
        {
          "internalType": "address[]",
          "name": "",
          "type": "address[]"
        },
        {
          "internalType": "euint32",
          "name": "",
          "type": "uint32"
        },
        {
          "internalType": "bool",
          "name": "",
          "type": "bool"
        },
        {
          "internalType": "address",
          "name": "",
          "type": "address"
        },
        {
          "internalType": "euint32",
          "name": "",
          "type": "uint32"
        },
        {
          "internalType": "bool",
          "name": "",
          "type": "bool"
        }
      ],
      "stateMutability": "view",
      "type": "function"
    },
    {
      "inputs": [],
      "name": "owner",
      "outputs": [
        {
          "internalType": "address",
          "name": "",
          "type": "address"
        }
      ],
      "stateMutability": "view",
      "type": "function"
    },
    {
      "inputs": [
        {
          "internalType": "uint256",
          "name": "gameId",
          "type": "uint256"
        }
      ],
      "name": "playersOf",
      "outputs": [
        {
          "internalType": "address[]",
          "name": "",
          "type": "address[]"
        }
      ],
      "stateMutability": "view",
      "type": "function"
    },
    {
      "inputs": [
        {
          "internalType": "uint256",
          "name": "gameId",
          "type": "uint256"
        },
        {
          "internalType": "euint32",
          "name": "encryptedInitialPot",
          "type": "uint32"
        }
      ],
      "name": "startGame",
      "outputs": [],
      "stateMutability": "nonpayable",
      "type": "function"
    },
    {
      "inputs": [
        {
          "internalType": "uint256",
          "name": "gameId",
          "type": "uint256"
        },
        {
          "internalType": "euint32",
          "name": "encryptedHand",
          "type": "uint32"
        }
      ],
      "name": "submitHand",
      "outputs": [],
      "stateMutability": "nonpayable",
      "type": "function"
    }
  ],
  "bytecode": "0x608060405234801561000f575f80fd5b50335f806101000a81548173ffffffffffffffffffffffffffffffffffffffff021916908373ffffffffffffffffffffffffffffffffffffffff1602179055506113ba8061005c5f395ff3fe608060405234801561000f575f80fd5b5060043610610091575f3560e01c8063680ca59b11610064578063680ca59b1461011b5780638da5cb5b14610137578063a597b14d14610155578063a6f8166814610185578063d96b64b5146101ba57610091565b80631e8db112146100955780634135bd35146100b15780634d1975b4146100e15780635b55396d146100ff575b5f80fd5b6100af60048036038101906100aa9190610b90565b6101ea565b005b6100cb60048036038101906100c69190610c2f565b610352565b6040516100d89190610c89565b60405180910390f35b6100e961049c565b6040516100f69190610c89565b60405180910390f35b61011960048036038101906101149190610b90565b6104a2565b005b61013560048036038101906101309190610cfc565b610621565b005b61013f6108b3565b60405161014c9190610d6f565b60405180910390f35b61016f600480360381019061016a9190610d88565b6108d6565b60405161017c9190610e6a565b60405180910390f35b61019f600480360381019061019a9190610d88565b610974565b6040516101b196959493929190610edd565b60405180910390f35b6101d460048036038101906101cf9190610f43565b610a9f565b6040516101e19190610f81565b60405180910390f35b5f60025f8481526020019081526020015f20905080600201601e9054906101000a900460ff1661024f576040517f08c379a000000000000000000000000000000000000000000000000000000000815260040161024690610ff4565b60405180910390fd5b8060020160049054906101000a900460ff16156102a1576040517f08c379a00000000000000000000000000000000000000000000000000000000081526004016102989061105c565b60405180910390fd5b81816001015f3373ffffffffffffffffffffffffffffffffffffffff1673ffffffffffffffffffffffffffffffffffffffff1681526020019081526020015f205f6101000a81548163ffffffff021916908363ffffffff1602179055503373ffffffffffffffffffffffffffffffffffffffff16837f565a344828bc4202a8e008171b8ead91056e9c1fa73edb1c2ba1a971308aee4a846040516103459190610f81565b60405180910390a3505050565b5f8060015f815480929190610366906110a7565b9190505590505f60025f8381526020019081526020015f2090505f5b8585905081101561042257815f018686838181106103a3576103a26110ee565b5b90506020020160208101906103b8919061111b565b908060018154018082558091505060019003905f5260205f20015f9091909190916101000a81548173ffffffffffffffffffffffffffffffffffffffff021916908373ffffffffffffffffffffffffffffffffffffffff1602179055508080600101915050610382565b50600181600201601e6101000a81548160ff0219169083151502179055503373ffffffffffffffffffffffffffffffffffffffff16827f2fb606546998a4eb443052467950e44b6e311d82ca43a9dbd0111fff7a6d240087876040516104899291906111cc565b60405180910390a3819250505092915050565b60015481565b5f8054906101000a900473ffffffffffffffffffffffffffffffffffffffff1673ffffffffffffffffffffffffffffffffffffffff163373ffffffffffffffffffffffffffffffffffffffff161461052f576040517f08c379a000000000000000000000000000000000000000000000000000000000815260040161052690611238565b60405180910390fd5b5f60025f8481526020019081526020015f20905080600201601e9054906101000a900460ff16610594576040517f08c379a000000000000000000000000000000000000000000000000000000000815260040161058b90610ff4565b60405180910390fd5b60018160020160046101000a81548160ff0219169083151502179055506105ce816002015f9054906101000a900463ffffffff1683610b07565b816002015f6101000a81548163ffffffff021916908363ffffffff160217905550827f50ad08f58a27f2851d7e3a1b3a6a46b290f2ce677e99642d30ff639721e7779060405160405180910390a2505050565b5f8054906101000a900473ffffffffffffffffffffffffffffffffffffffff1673ffffffffffffffffffffffffffffffffffffffff163373ffffffffffffffffffffffffffffffffffffffff16146106ae576040517f08c379a00000000000000000000000000000000000000000000000000000000081526004016106a590611238565b60405180910390fd5b5f60025f8681526020019081526020015f20905080600201601e9054906101000a900460ff16610713576040517f08c379a000000000000000000000000000000000000000000000000000000000815260040161070a90610ff4565b60405180910390fd5b8060020160049054906101000a900460ff16610764576040517f08c379a000000000000000000000000000000000000000000000000000000000815260040161075b906112a0565b60405180910390fd5b80600201601d9054906101000a900460ff16156107b6576040517f08c379a00000000000000000000000000000000000000000000000000000000081526004016107ad90611308565b60405180910390fd5b838160020160056101000a81548173ffffffffffffffffffffffffffffffffffffffff021916908373ffffffffffffffffffffffffffffffffffffffff160217905550828160020160196101000a81548163ffffffff021916908363ffffffff16021790555081816002015f6101000a81548163ffffffff021916908363ffffffff160217905550600181600201601d6101000a81548160ff0219169083151502179055508373ffffffffffffffffffffffffffffffffffffffff16857fb33dbe77d05cd7f28c38ec13c8aec46b6366a712083f5f6e5fac6a306a12159285856040516108a4929190611326565b60405180910390a35050505050565b5f8054906101000a900473ffffffffffffffffffffffffffffffffffffffff1681565b606060025f8381526020019081526020015f205f0180548060200260200160405190810160405280929190818152602001828054801561096857602002820191905f5260205f20905b815f9054906101000a900473ffffffffffffffffffffffffffffffffffffffff1673ffffffffffffffffffffffffffffffffffffffff168152602001906001019080831161091f575b50505050509050919050565b60605f805f805f8060025f8981526020019081526020015f209050805f01816002015f9054906101000a900463ffffffff168260020160049054906101000a900460ff168360020160059054906101000a900473ffffffffffffffffffffffffffffffffffffffff168460020160199054906101000a900463ffffffff1685600201601d9054906101000a900460ff1685805480602002602001604051908101604052809291908181526020018280548015610a8257602002820191905f5260205f20905b815f9054906101000a900473ffffffffffffffffffffffffffffffffffffffff1673ffffffffffffffffffffffffffffffffffffffff1681526020019060010190808311610a39575b505050505095509650965096509650965096505091939550919395565b5f60025f8481526020019081526020015f206001015f8373ffffffffffffffffffffffffffffffffffffffff1673ffffffffffffffffffffffffffffffffffffffff1681526020019081526020015f205f9054906101000a900463ffffffff16905092915050565b5f8183610b14919061134d565b905092915050565b5f80fd5b5f80fd5b5f819050919050565b610b3681610b24565b8114610b40575f80fd5b50565b5f81359050610b5181610b2d565b92915050565b5f63ffffffff82169050919050565b610b6f81610b57565b8114610b79575f80fd5b50565b5f81359050610b8a81610b66565b92915050565b5f8060408385031215610ba657610ba5610b1c565b5b5f610bb385828601610b43565b9250506020610bc485828601610b7c565b9150509250929050565b5f80fd5b5f80fd5b5f80fd5b5f8083601f840112610bef57610bee610bce565b5b8235905067ffffffffffffffff811115610c0c57610c0b610bd2565b5b602083019150836020820283011115610c2857610c27610bd6565b5b9250929050565b5f8060208385031215610c4557610c44610b1c565b5b5f83013567ffffffffffffffff811115610c6257610c61610b20565b5b610c6e85828601610bda565b92509250509250929050565b610c8381610b24565b82525050565b5f602082019050610c9c5f830184610c7a565b92915050565b5f73ffffffffffffffffffffffffffffffffffffffff82169050919050565b5f610ccb82610ca2565b9050919050565b610cdb81610cc1565b8114610ce5575f80fd5b50565b5f81359050610cf681610cd2565b92915050565b5f805f8060808587031215610d1457610d13610b1c565b5b5f610d2187828801610b43565b9450506020610d3287828801610ce8565b9350506040610d4387828801610b7c565b9250506060610d5487828801610b7c565b91505092959194509250565b610d6981610cc1565b82525050565b5f602082019050610d825f830184610d60565b92915050565b5f60208284031215610d9d57610d9c610b1c565b5b5f610daa84828501610b43565b91505092915050565b5f81519050919050565b5f82825260208201905092915050565b5f819050602082019050919050565b610de581610cc1565b82525050565b5f610df68383610ddc565b60208301905092915050565b5f602082019050919050565b5f610e1882610db3565b610e228185610dbd565b9350610e2d83610dcd565b805f5b83811015610e5d578151610e448882610deb565b9750610e4f83610e02565b925050600181019050610e30565b5085935050505092915050565b5f6020820190508181035f830152610e828184610e0e565b905092915050565b5f819050919050565b5f610ead610ea8610ea384610b57565b610e8a565b610b57565b9050919050565b610ebd81610e93565b82525050565b5f8115159050919050565b610ed781610ec3565b82525050565b5f60c0820190508181035f830152610ef58189610e0e565b9050610f046020830188610eb4565b610f116040830187610ece565b610f1e6060830186610d60565b610f2b6080830185610eb4565b610f3860a0830184610ece565b979650505050505050565b5f8060408385031215610f5957610f58610b1c565b5b5f610f6685828601610b43565b9250506020610f7785828601610ce8565b9150509250929050565b5f602082019050610f945f830184610eb4565b92915050565b5f82825260208201905092915050565b7f6e6f2d67616d65000000000000000000000000000000000000000000000000005f82015250565b5f610fde600783610f9a565b9150610fe982610faa565b602082019050919050565b5f6020820190508181035f83015261100b81610fd2565b9050919050565b7f616c72656164792d7374617274656400000000000000000000000000000000005f82015250565b5f611046600f83610f9a565b915061105182611012565b602082019050919050565b5f6020820190508181035f8301526110738161103a565b9050919050565b7f4e487b71000000000000000000000000000000000000000000000000000000005f52601160045260245ffd5b5f6110b182610b24565b91507fffffffffffffffffffffffffffffffffffffffffffffffffffffffffffffffff82036110e3576110e261107a565b5b600182019050919050565b7f4e487b71000000000000000000000000000000000000000000000000000000005f52603260045260245ffd5b5f602082840312156111305761112f610b1c565b5b5f61113d84828501610ce8565b91505092915050565b5f819050919050565b5f61115d6020840184610ce8565b905092915050565b5f602082019050919050565b5f61117c8385610dbd565b935061118782611146565b805f5b858110156111bf5761119c828461114f565b6111a68882610deb565b97506111b183611165565b92505060018101905061118a565b5085925050509392505050565b5f6020820190508181035f8301526111e5818486611171565b90509392505050565b7f6e6f742d6f776e657200000000000000000000000000000000000000000000005f82015250565b5f611222600983610f9a565b915061122d826111ee565b602082019050919050565b5f6020820190508181035f83015261124f81611216565b9050919050565b7f6e6f742d737461727465640000000000000000000000000000000000000000005f82015250565b5f61128a600b83610f9a565b915061129582611256565b602082019050919050565b5f6020820190508181035f8301526112b78161127e565b9050919050565b7f616c72656164792d66696e616c697a65640000000000000000000000000000005f82015250565b5f6112f2601183610f9a565b91506112fd826112be565b602082019050919050565b5f6020820190508181035f83015261131f816112e6565b9050919050565b5f6040820190506113395f830185610eb4565b6113466020830184610eb4565b9392505050565b5f61135782610b57565b915061136283610b57565b9250828201905063ffffffff81111561137e5761137d61107a565b5b9291505056fea264697066735822122066eb3a2fcd94946fd2b2e01c90cc343565911b2eb89cfdab096209c473df496164736f6c63430008180033",
  "linkReferences": {},
  "deployedLinkReferences": {},
  "immutableReferences": {},
  "inputSourceName": "project/examples/encrypted-poker-premium/contracts/EncryptedPokerPremium.sol",
  "buildInfoId": "solc-0_8_24-c87bbb38104db827434223d5a4ba7b195ca4c66e"
}