{
  "_format": "hh3-artifact-1",
  "contractName": "VestingPremium",
  "sourceName": "examples/vesting-premium/contracts/VestingPremium.sol",
  "abi": [
    {
      "anonymous": false,
      "inputs": [
        {
          "indexed": true,
          "internalType": "uint256",
          "name": "id",
          "type": "uint256"
        },
        {
          "indexed": true,
          "internalType": "address",
          "name": "beneficiary",
          "type": "address"
        }
      ],
      "name": "VestClaimed",
      "type": "event"
    },
    {
      "anonymous": false,
      "inputs": [
        {
          "indexed": true,
          "internalType": "uint256",
          "name": "id",
          "type": "uint256"
        },
        {
          "indexed": true,
          "internalType": "address",
          "name": "beneficiary",
          "type": "address"
        },
        {
          "indexed": false,
          "internalType": "uint64",
          "name": "releaseAt",
          "type": "uint64"
        }
      ],
      "name": "VestCreated",
      "type": "event"
    },
    {
      "inputs": [
        {
          "internalType": "uint256",
          "name": "id",
          "type": "uint256"
        }
      ],
      "name": "claimVest",
      "outputs": [],
      "stateMutability": "nonpayable",
      "type": "function"
    },
    {
      "inputs": [
        {
          "internalType": "address",
          "name": "beneficiary",
          "type": "address"
        },
        {
          "internalType": "euint32",
          "name": "amount",
          "type": "uint32"
        },
        {
          "internalType": "uint64",
          "name": "releaseAt",
          "type": "uint64"
        }
      ],
      "name": "createVest",
      "outputs": [
        {
          "internalType": "uint256",
          "name": "",
          "type": "uint256"
        }
      ],
      "stateMutability": "nonpayable",
      "type": "function"
    },
    {
      "inputs": [],
      "name": "vestCount",
      "outputs": [
        {
          "internalType": "uint256",
          "name": "",
          "type": "uint256"
        }
      ],
      "stateMutability": "view",
      "type": "function"
    },
    {
      "inputs": [
        {
          "internalType": "uint256",
          "name": "id",
          "type": "uint256"
        }
      ],
      "name": "vestInfo",
      "outputs": [
        {
          "internalType": "address",
          "name": "",
          "type": "address"
        },
        {
          "internalType": "euint32",
          "name": "",
          "type": "uint32"
        },
        {
          "internalType": "uint64",
          "name": "",
          "type": "uint64"
        },
        {
          "internalType": "bool",
          "name": "",
          "type": "bool"
        }
      ],
      "stateMutability": "view",
      "type": "function"
    },
    {
      "inputs": [
        {
          "internalType": "uint256",
          "name": "",
          "type": "uint256"
        }
      ],
      "name": "vests",
      "outputs": [
        {
          "internalType": "address",
          "name": "beneficiary",
          "type": "address"
        },
        {
          "internalType": "euint32",
          "name": "amount",
          "type": "uint32"
        },
        {
          "internalType": "uint64",
          "name": "releaseAt",
          "type": "uint64"
        },
        {
          "internalType": "bool",
          "name": "claimed",
          "type": "bool"
        }
      ],
      "stateMutability": "view",
      "type": "function"
    }
  ],
  "bytecode": "0x608060405234801561000f575f80fd5b50610b668061001d5f395ff3fe608060405234801561000f575f80fd5b5060043610610055575f3560e01c806301a76e271461005957806351def5561461008957806368d5c768146100bc578063a3eebb4d146100ef578063e89303f31461010b575b5f80fd5b610073600480360381019061006e9190610701565b610129565b6040516100809190610769565b60405180910390f35b6100a3600480360381019061009e91906107ac565b61036a565b6040516100b39493929190610848565b60405180910390f35b6100d660048036038101906100d191906107ac565b6103e3565b6040516100e69493929190610848565b60405180910390f35b610109600480360381019061010491906107ac565b61046b565b005b610113610628565b6040516101209190610769565b60405180910390f35b5f8073ffffffffffffffffffffffffffffffffffffffff168473ffffffffffffffffffffffffffffffffffffffff1603610198576040517f08c379a000000000000000000000000000000000000000000000000000000000815260040161018f906108e5565b60405180910390fd5b428267ffffffffffffffff16116101e4576040517f08c379a00000000000000000000000000000000000000000000000000000000081526004016101db9061094d565b60405180910390fd5b5f805f8154809291906101f690610998565b91905055905060405180608001604052808673ffffffffffffffffffffffffffffffffffffffff1681526020018563ffffffff1681526020018467ffffffffffffffff1681526020015f151581525060015f8381526020019081526020015f205f820151815f015f6101000a81548173ffffffffffffffffffffffffffffffffffffffff021916908373ffffffffffffffffffffffffffffffffffffffff1602179055506020820151815f0160146101000a81548163ffffffff021916908363ffffffff1602179055506040820151815f0160186101000a81548167ffffffffffffffff021916908367ffffffffffffffff1602179055506060820151816001015f6101000a81548160ff0219169083151502179055509050508473ffffffffffffffffffffffffffffffffffffffff16817fe26d29753c9c43bbbe0ded73d1014296e3abe3f71c84aad1a44aa4ffa48e155b8560405161035791906109df565b60405180910390a3809150509392505050565b6001602052805f5260405f205f91509050805f015f9054906101000a900473ffffffffffffffffffffffffffffffffffffffff1690805f0160149054906101000a900463ffffffff1690805f0160189054906101000a900467ffffffffffffffff1690806001015f9054906101000a900460ff16905084565b5f805f805f60015f8781526020019081526020015f209050805f015f9054906101000a900473ffffffffffffffffffffffffffffffffffffffff16815f0160149054906101000a900463ffffffff16825f0160189054906101000a900467ffffffffffffffff16836001015f9054906101000a900460ff169450945094509450509193509193565b5f60015f8381526020019081526020015f209050806001015f9054906101000a900460ff16156104d0576040517f08c379a00000000000000000000000000000000000000000000000000000000081526004016104c790610a42565b60405180910390fd5b805f0160189054906101000a900467ffffffffffffffff1667ffffffffffffffff16421015610534576040517f08c379a000000000000000000000000000000000000000000000000000000000815260040161052b90610aaa565b60405180910390fd5b3373ffffffffffffffffffffffffffffffffffffffff16815f015f9054906101000a900473ffffffffffffffffffffffffffffffffffffffff1673ffffffffffffffffffffffffffffffffffffffff16146105c4576040517f08c379a00000000000000000000000000000000000000000000000000000000081526004016105bb90610b12565b60405180910390fd5b6001816001015f6101000a81548160ff0219169083151502179055503373ffffffffffffffffffffffffffffffffffffffff16827f19bb97683146cd17647417da41fd24fefa0dd20fe03fe16a07e543b61d39488f60405160405180910390a35050565b5f5481565b5f80fd5b5f73ffffffffffffffffffffffffffffffffffffffff82169050919050565b5f61065a82610631565b9050919050565b61066a81610650565b8114610674575f80fd5b50565b5f8135905061068581610661565b92915050565b5f63ffffffff82169050919050565b6106a38161068b565b81146106ad575f80fd5b50565b5f813590506106be8161069a565b92915050565b5f67ffffffffffffffff82169050919050565b6106e0816106c4565b81146106ea575f80fd5b50565b5f813590506106fb816106d7565b92915050565b5f805f606084860312156107185761071761062d565b5b5f61072586828701610677565b9350506020610736868287016106b0565b9250506040610747868287016106ed565b9150509250925092565b5f819050919050565b61076381610751565b82525050565b5f60208201905061077c5f83018461075a565b92915050565b61078b81610751565b8114610795575f80fd5b50565b5f813590506107a681610782565b92915050565b5f602082840312156107c1576107c061062d565b5b5f6107ce84828501610798565b91505092915050565b6107e081610650565b82525050565b5f819050919050565b5f6108096108046107ff8461068b565b6107e6565b61068b565b9050919050565b610819816107ef565b82525050565b610828816106c4565b82525050565b5f8115159050919050565b6108428161082e565b82525050565b5f60808201905061085b5f8301876107d7565b6108686020830186610810565b610875604083018561081f565b6108826060830184610839565b95945050505050565b5f82825260208201905092915050565b7f7a65726f2d62656e6566696369617279000000000000000000000000000000005f82015250565b5f6108cf60108361088b565b91506108da8261089b565b602082019050919050565b5f6020820190508181035f8301526108fc816108c3565b9050919050565b7f72656c656173652d696e2d7061737400000000000000000000000000000000005f82015250565b5f610937600f8361088b565b915061094282610903565b602082019050919050565b5f6020820190508181035f8301526109648161092b565b9050919050565b7f4e487b71000000000000000000000000000000000000000000000000000000005f52601160045260245ffd5b5f6109a282610751565b91507fffffffffffffffffffffffffffffffffffffffffffffffffffffffffffffffff82036109d4576109d361096b565b5b600182019050919050565b5f6020820190506109f25f83018461081f565b92915050565b7f616c72656164792d636c61696d656400000000000000000000000000000000005f82015250565b5f610a2c600f8361088b565b9150610a37826109f8565b602082019050919050565b5f6020820190508181035f830152610a5981610a20565b9050919050565b7f6e6f742d72656c656173656400000000000000000000000000000000000000005f82015250565b5f610a94600c8361088b565b9150610a9f82610a60565b602082019050919050565b5f6020820190508181035f830152610ac181610a88565b9050919050565b7f6e6f742d62656e656669636961727900000000000000000000000000000000005f82015250565b5f610afc600f8361088b565b9150610b0782610ac8565b602082019050919050565b5f6020820190508181035f830152610b2981610af0565b905091905056fea2646970667358221220ea468eaf34b9dbffbff073d964a45ec17cf2b8d5647f9918bf91ffc03bbc779364736f6c63430008180033",
  "linkReferences": {},
  "deployedLinkReferences": {},
  "immutableReferences": {},
  "inputSourceName": "project/examples/vesting-premium/contracts/VestingPremium.sol",
  "buildInfoId": "solc-0_8_24-c87bbb38104db827434223d5a4ba7b195ca4c66e"
}