{
  "_format": "hh3-artifact-1",
  "contractName": "PublicEncryptionPremium",
  "sourceName": "examples/public-encryption-premium/contracts/PublicEncryptionPremium.sol",
  "abi": [
    {
      "inputs": [],
      "stateMutability": "nonpayable",
      "type": "constructor"
    },
    {
      "anonymous": false,
      "inputs": [
        {
          "indexed": true,
          "internalType": "uint256",
          "name": "id",
          "type": "uint256"
        },
        {
          "indexed": true,
          "internalType": "address",
          "name": "who",
          "type": "address"
        }
      ],
      "name": "PubliclyDecrypted",
      "type": "event"
    },
    {
      "anonymous": false,
      "inputs": [
        {
          "indexed": true,
          "internalType": "uint256",
          "name": "id",
          "type": "uint256"
        },
        {
          "indexed": true,
          "internalType": "address",
          "name": "who",
          "type": "address"
        }
      ],
      "name": "ReencryptionAllowed",
      "type": "event"
    },
    {
      "anonymous": false,
      "inputs": [
        {
          "indexed": true,
          "internalType": "uint256",
          "name": "id",
          "type": "uint256"
        },
        {
          "indexed": true,
          "internalType": "address",
          "name": "who",
          "type": "address"
        }
      ],
      "name": "Stored",
      "type": "event"
    },
    {
      "inputs": [
        {
          "internalType": "uint256",
          "name": "id",
          "type": "uint256"
        },
        {
          "internalType": "address",
          "name": "grantee",
          "type": "address"
        }
      ],
      "name": "allowReencryption",
      "outputs": [],
      "stateMutability": "nonpayable",
      "type": "function"
    },
    {
      "inputs": [
        {
          "internalType": "uint256",
          "name": "id",
          "type": "uint256"
        }
      ],
      "name": "getStored",
      "outputs": [
        {
          "internalType": "euint32",
          "name": "",
          "type": "uint32"
        }
      ],
      "stateMutability": "view",
      "type": "function"
    },
    {
      "inputs": [
        {
          "internalType": "uint256",
          "name": "id",
          "type": "uint256"
        }
      ],
      "name": "publicDecrypt",
      "outputs": [
        {
          "internalType": "uint32",
          "name": "",
          "type": "uint32"
        }
      ],
      "stateMutability": "nonpayable",
      "type": "function"
    },
    {
      "inputs": [
        {
          "internalType": "address",
          "name": "newOwner",
          "type": "address"
        }
      ],
      "name": "setOwner",
      "outputs": [],
      "stateMutability": "nonpayable",
      "type": "function"
    },
    {
      "inputs": [
        {
          "internalType": "euint32",
          "name": "value",
          "type": "uint32"
        }
      ],
      "name": "storeEncrypted",
      "outputs": [
        {
          "internalType": "uint256",
          "name": "id",
          "type": "uint256"
        }
      ],
      "stateMutability": "nonpayable",
      "type": "function"
    }
  ],
  "bytecode": "0x608060405234801561000f575f80fd5b506040518060400160405280601781526020017f5075626c6963456e6372797074696f6e5072656d69756d0000000000000000008152506040518060400160405280600181526020017f310000000000000000000000000000000000000000000000000000000000000081525050503360025f6101000a81548173ffffffffffffffffffffffffffffffffffffffff021916908373ffffffffffffffffffffffffffffffffffffffff1602179055505f600181905550610872806100d25f395ff3fe608060405234801561000f575f80fd5b5060043610610055575f3560e01c806313af403514610059578063738e81c214610075578063906b57d8146100a55780639a5cdb04146100d5578063dcdf46df146100f1575b5f80fd5b610073600480360381019061006e919061051b565b610121565b005b61008f600480360381019061008a919061057f565b6101f3565b60405161009c91906105c2565b60405180910390f35b6100bf60048036038101906100ba9190610605565b610281565b6040516100cc9190610669565b60405180910390f35b6100ef60048036038101906100ea9190610682565b6102f9565b005b61010b60048036038101906101069190610605565b610420565b60405161011891906106cf565b60405180910390f35b60025f9054906101000a900473ffffffffffffffffffffffffffffffffffffffff1673ffffffffffffffffffffffffffffffffffffffff163373ffffffffffffffffffffffffffffffffffffffff16146101b0576040517f08c379a00000000000000000000000000000000000000000000000000000000081526004016101a790610742565b60405180910390fd5b8060025f6101000a81548173ffffffffffffffffffffffffffffffffffffffff021916908373ffffffffffffffffffffffffffffffffffffffff16021790555050565b5f60015f81546102029061078d565b9190508190559050815f808381526020019081526020015f205f6101000a81548163ffffffff021916908363ffffffff1602179055503373ffffffffffffffffffffffffffffffffffffffff16817f72e92eb0e425b8335cb1af47d9215ead98fea0db2508f1155d0d113279dd81a660405160405180910390a3919050565b5f808211801561029357506001548211155b6102d2576040517f08c379a00000000000000000000000000000000000000000000000000000000081526004016102c99061081e565b60405180910390fd5b5f808381526020019081526020015f205f9054906101000a900463ffffffff169050919050565b60025f9054906101000a900473ffffffffffffffffffffffffffffffffffffffff1673ffffffffffffffffffffffffffffffffffffffff163373ffffffffffffffffffffffffffffffffffffffff1614610388576040517f08c379a000000000000000000000000000000000000000000000000000000000815260040161037f90610742565b60405180910390fd5b5f8211801561039957506001548211155b6103d8576040517f08c379a00000000000000000000000000000000000000000000000000000000081526004016103cf9061081e565b60405180910390fd5b8073ffffffffffffffffffffffffffffffffffffffff16827f2532e34caef9edec92c010ffeb72a093cb7dbd18dcbe835960c4bd32cb726a7660405160405180910390a35050565b5f808211801561043257506001548211155b610471576040517f08c379a00000000000000000000000000000000000000000000000000000000081526004016104689061081e565b60405180910390fd5b3373ffffffffffffffffffffffffffffffffffffffff16827fb9d852df5293d1cb2b028538330ef6e4e88888c5eca1cb6fb7be880dc229216d60405160405180910390a35f9050919050565b5f80fd5b5f73ffffffffffffffffffffffffffffffffffffffff82169050919050565b5f6104ea826104c1565b9050919050565b6104fa816104e0565b8114610504575f80fd5b50565b5f81359050610515816104f1565b92915050565b5f602082840312156105305761052f6104bd565b5b5f61053d84828501610507565b91505092915050565b5f63ffffffff82169050919050565b61055e81610546565b8114610568575f80fd5b50565b5f8135905061057981610555565b92915050565b5f60208284031215610594576105936104bd565b5b5f6105a18482850161056b565b91505092915050565b5f819050919050565b6105bc816105aa565b82525050565b5f6020820190506105d55f8301846105b3565b92915050565b6105e4816105aa565b81146105ee575f80fd5b50565b5f813590506105ff816105db565b92915050565b5f6020828403121561061a576106196104bd565b5b5f610627848285016105f1565b91505092915050565b5f819050919050565b5f61065361064e61064984610546565b610630565b610546565b9050919050565b61066381610639565b82525050565b5f60208201905061067c5f83018461065a565b92915050565b5f8060408385031215610698576106976104bd565b5b5f6106a5858286016105f1565b92505060206106b685828601610507565b9150509250929050565b6106c981610546565b82525050565b5f6020820190506106e25f8301846106c0565b92915050565b5f82825260208201905092915050565b7f6f6e6c792d6f776e6572000000000000000000000000000000000000000000005f82015250565b5f61072c600a836106e8565b9150610737826106f8565b602082019050919050565b5f6020820190508181035f83015261075981610720565b9050919050565b7f4e487b71000000000000000000000000000000000000000000000000000000005f52601160045260245ffd5b5f610797826105aa565b91507fffffffffffffffffffffffffffffffffffffffffffffffffffffffffffffffff82036107c9576107c8610760565b5b600182019050919050565b7f696e76616c69642d6964000000000000000000000000000000000000000000005f82015250565b5f610808600a836106e8565b9150610813826107d4565b602082019050919050565b5f6020820190508181035f830152610835816107fc565b905091905056fea26469706673582212201b475f0689749aca2b2c37894ab896082ad1fbd7697731eb9b24e43efd5e498c64736f6c63430008180033",
  "linkReferences": {},
  "deployedLinkReferences": {},
  "immutableReferences": {},
  "inputSourceName": "project/examples/public-encryption-premium/contracts/PublicEncryptionPremium.sol",
  "buildInfoId": "solc-0_8_24-c87bbb38104db827434223d5a4ba7b195ca4c66e"
}