{
  "_format": "hh3-artifact-1",
  "contractName": "BlindDEXPremium",
  "sourceName": "examples/blind-dex-premium/contracts/BlindDEXPremium.sol",
  "abi": [
    {
      "inputs": [],
      "stateMutability": "nonpayable",
      "type": "constructor"
    },
    {
      "anonymous": false,
      "inputs": [
        {
          "indexed": true,
          "internalType": "uint256",
          "name": "id",
          "type": "uint256"
        }
      ],
      "name": "OrderCancelled",
      "type": "event"
    },
    {
      "anonymous": false,
      "inputs": [
        {
          "indexed": true,
          "internalType": "uint256",
          "name": "id",
          "type": "uint256"
        },
        {
          "indexed": true,
          "internalType": "address",
          "name": "maker",
          "type": "address"
        },
        {
          "indexed": false,
          "internalType": "euint32",
          "name": "encryptedAmount",
          "type": "uint32"
        },
        {
          "indexed": false,
          "internalType": "euint32",
          "name": "encryptedPrice",
          "type": "uint32"
        }
      ],
      "name": "OrderPlaced",
      "type": "event"
    },
    {
      "anonymous": false,
      "inputs": [
        {
          "indexed": true,
          "internalType": "uint256",
          "name": "buyOrderId",
          "type": "uint256"
        },
        {
          "indexed": true,
          "internalType": "uint256",
          "name": "sellOrderId",
          "type": "uint256"
        },
        {
          "indexed": false,
          "internalType": "euint32",
          "name": "encryptedAmount",
          "type": "uint32"
        },
        {
          "indexed": false,
          "internalType": "euint32",
          "name": "encryptedPrice",
          "type": "uint32"
        }
      ],
      "name": "TradeFinalized",
      "type": "event"
    },
    {
      "inputs": [
        {
          "internalType": "uint256",
          "name": "id",
          "type": "uint256"
        }
      ],
      "name": "cancelOrder",
      "outputs": [],
      "stateMutability": "nonpayable",
      "type": "function"
    },
    {
      "inputs": [
        {
          "internalType": "uint256",
          "name": "buyOrderId",
          "type": "uint256"
        },
        {
          "internalType": "uint256",
          "name": "sellOrderId",
          "type": "uint256"
        },
        {
          "internalType": "euint32",
          "name": "encryptedAmount",
          "type": "uint32"
        },
        {
          "internalType": "euint32",
          "name": "encryptedPrice",
          "type": "uint32"
        }
      ],
      "name": "finalizeTrade",
      "outputs": [],
      "stateMutability": "nonpayable",
      "type": "function"
    },
    {
      "inputs": [],
      "name": "orderCount",
      "outputs": [
        {
          "internalType": "uint256",
          "name": "",
          "type": "uint256"
        }
      ],
      "stateMutability": "view",
      "type": "function"
    },
    {
      "inputs": [
        {
          "internalType": "uint256",
          "name": "",
          "type": "uint256"
        }
      ],
      "name": "orders",
      "outputs": [
        {
          "internalType": "address",
          "name": "maker",
          "type": "address"
        },
        {
          "internalType": "euint32",
          "name": "encryptedAmount",
          "type": "uint32"
        },
        {
          "internalType": "euint32",
          "name": "encryptedPrice",
          "type": "uint32"
        },
        {
          "internalType": "bool",
          "name": "exists",
          "type": "bool"
        }
      ],
      "stateMutability": "view",
      "type": "function"
    },
    {
      "inputs": [],
      "name": "owner",
      "outputs": [
        {
          "internalType": "address",
          "name": "",
          "type": "address"
        }
      ],
      "stateMutability": "view",
      "type": "function"
    },
    {
      "inputs": [
        {
          "internalType": "euint32",
          "name": "encryptedAmount",
          "type": "uint32"
        },
        {
          "internalType": "euint32",
          "name": "encryptedPrice",
          "type": "uint32"
        }
      ],
      "name": "placeOrder",
      "outputs": [
        {
          "internalType": "uint256",
          "name": "",
          "type": "uint256"
        }
      ],
      "stateMutability": "nonpayable",
      "type": "function"
    }
  ],
  "bytecode": "0x608060405234801561000f575f80fd5b50335f806101000a81548173ffffffffffffffffffffffffffffffffffffffff021916908373ffffffffffffffffffffffffffffffffffffffff160217905550610cae8061005c5f395ff3fe608060405234801561000f575f80fd5b5060043610610060575f3560e01c80630ffbfdd5146100645780632453ffa814610080578063290d485e1461009e578063514fcac7146100ce5780638da5cb5b146100ea578063a85c38ef14610108575b5f80fd5b61007e600480360381019061007991906107e2565b61013b565b005b6100886103b9565b6040516100959190610855565b60405180910390f35b6100b860048036038101906100b3919061086e565b6103bf565b6040516100c59190610855565b60405180910390f35b6100e860048036038101906100e391906108ac565b61053d565b005b6100f26106da565b6040516100ff9190610916565b60405180910390f35b610122600480360381019061011d91906108ac565b6106fd565b6040516101329493929190610982565b60405180910390f35b5f8054906101000a900473ffffffffffffffffffffffffffffffffffffffff1673ffffffffffffffffffffffffffffffffffffffff163373ffffffffffffffffffffffffffffffffffffffff16146101c8576040517f08c379a00000000000000000000000000000000000000000000000000000000081526004016101bf90610a1f565b60405180910390fd5b60025f8581526020019081526020015f205f01601c9054906101000a900460ff16610228576040517f08c379a000000000000000000000000000000000000000000000000000000000815260040161021f90610a87565b60405180910390fd5b60025f8481526020019081526020015f205f01601c9054906101000a900460ff16610288576040517f08c379a000000000000000000000000000000000000000000000000000000000815260040161027f90610aef565b60405180910390fd5b60025f8581526020019081526020015f205f8082015f6101000a81549073ffffffffffffffffffffffffffffffffffffffff02191690555f820160146101000a81549063ffffffff02191690555f820160186101000a81549063ffffffff02191690555f8201601c6101000a81549060ff0219169055505060025f8481526020019081526020015f205f8082015f6101000a81549073ffffffffffffffffffffffffffffffffffffffff02191690555f820160146101000a81549063ffffffff02191690555f820160186101000a81549063ffffffff02191690555f8201601c6101000a81549060ff0219169055505082847f102e10c80b27a55a364c37df9cb9822846802c3e95ea2a1aef19ecaaaea560e384846040516103ab929190610b0d565b60405180910390a350505050565b60015481565b5f8060015f8154809291906103d390610b61565b91905055905060405180608001604052803373ffffffffffffffffffffffffffffffffffffffff1681526020018563ffffffff1681526020018463ffffffff1681526020016001151581525060025f8381526020019081526020015f205f820151815f015f6101000a81548173ffffffffffffffffffffffffffffffffffffffff021916908373ffffffffffffffffffffffffffffffffffffffff1602179055506020820151815f0160146101000a81548163ffffffff021916908363ffffffff1602179055506040820151815f0160186101000a81548163ffffffff021916908363ffffffff1602179055506060820151815f01601c6101000a81548160ff0219169083151502179055509050503373ffffffffffffffffffffffffffffffffffffffff16817fae1d10079935de491f77acbd7f1d1073d769a6dcfdf55bdad90d7216e29b31b4868660405161052b929190610b0d565b60405180910390a38091505092915050565b5f60025f8381526020019081526020015f209050805f01601c9054906101000a900460ff166105a1576040517f08c379a000000000000000000000000000000000000000000000000000000000815260040161059890610bf2565b60405180910390fd5b3373ffffffffffffffffffffffffffffffffffffffff16815f015f9054906101000a900473ffffffffffffffffffffffffffffffffffffffff1673ffffffffffffffffffffffffffffffffffffffff1614610631576040517f08c379a000000000000000000000000000000000000000000000000000000000815260040161062890610c5a565b60405180910390fd5b60025f8381526020019081526020015f205f8082015f6101000a81549073ffffffffffffffffffffffffffffffffffffffff02191690555f820160146101000a81549063ffffffff02191690555f820160186101000a81549063ffffffff02191690555f8201601c6101000a81549060ff02191690555050817f61b9399f2f0f32ca39ce8d7be32caed5ec22fe07a6daba3a467ed479ec60658260405160405180910390a25050565b5f8054906101000a900473ffffffffffffffffffffffffffffffffffffffff1681565b6002602052805f5260405f205f91509050805f015f9054906101000a900473ffffffffffffffffffffffffffffffffffffffff1690805f0160149054906101000a900463ffffffff1690805f0160189054906101000a900463ffffffff1690805f01601c9054906101000a900460ff16905084565b5f80fd5b5f819050919050565b61078881610776565b8114610792575f80fd5b50565b5f813590506107a38161077f565b92915050565b5f63ffffffff82169050919050565b6107c1816107a9565b81146107cb575f80fd5b50565b5f813590506107dc816107b8565b92915050565b5f805f80608085870312156107fa576107f9610772565b5b5f61080787828801610795565b945050602061081887828801610795565b9350506040610829878288016107ce565b925050606061083a878288016107ce565b91505092959194509250565b61084f81610776565b82525050565b5f6020820190506108685f830184610846565b92915050565b5f806040838503121561088457610883610772565b5b5f610891858286016107ce565b92505060206108a2858286016107ce565b9150509250929050565b5f602082840312156108c1576108c0610772565b5b5f6108ce84828501610795565b91505092915050565b5f73ffffffffffffffffffffffffffffffffffffffff82169050919050565b5f610900826108d7565b9050919050565b610910816108f6565b82525050565b5f6020820190506109295f830184610907565b92915050565b5f819050919050565b5f61095261094d610948846107a9565b61092f565b6107a9565b9050919050565b61096281610938565b82525050565b5f8115159050919050565b61097c81610968565b82525050565b5f6080820190506109955f830187610907565b6109a26020830186610959565b6109af6040830185610959565b6109bc6060830184610973565b95945050505050565b5f82825260208201905092915050565b7f6e6f742d6f776e657200000000000000000000000000000000000000000000005f82015250565b5f610a096009836109c5565b9150610a14826109d5565b602082019050919050565b5f6020820190508181035f830152610a36816109fd565b9050919050565b7f6e6f2d6275792d6f7264657200000000000000000000000000000000000000005f82015250565b5f610a71600c836109c5565b9150610a7c82610a3d565b602082019050919050565b5f6020820190508181035f830152610a9e81610a65565b9050919050565b7f6e6f2d73656c6c2d6f72646572000000000000000000000000000000000000005f82015250565b5f610ad9600d836109c5565b9150610ae482610aa5565b602082019050919050565b5f6020820190508181035f830152610b0681610acd565b9050919050565b5f604082019050610b205f830185610959565b610b2d6020830184610959565b9392505050565b7f4e487b71000000000000000000000000000000000000000000000000000000005f52601160045260245ffd5b5f610b6b82610776565b91507fffffffffffffffffffffffffffffffffffffffffffffffffffffffffffffffff8203610b9d57610b9c610b34565b5b600182019050919050565b7f6e6f2d6f726465720000000000000000000000000000000000000000000000005f82015250565b5f610bdc6008836109c5565b9150610be782610ba8565b602082019050919050565b5f6020820190508181035f830152610c0981610bd0565b9050919050565b7f6e6f742d6d616b657200000000000000000000000000000000000000000000005f82015250565b5f610c446009836109c5565b9150610c4f82610c10565b602082019050919050565b5f6020820190508181035f830152610c7181610c38565b905091905056fea264697066735822122036c33a6c2e30fbb83e8d47522a572e56cf45c598175eecd472a6bc58cf2cc2f564736f6c63430008180033",
  "linkReferences": {},
  "deployedLinkReferences": {},
  "immutableReferences": {},
  "inputSourceName": "project/examples/blind-dex-premium/contracts/BlindDEXPremium.sol",
  "buildInfoId": "solc-0_8_24-c87bbb38104db827434223d5a4ba7b195ca4c66e"
}