{
  "_format": "hh3-artifact-1",
  "contractName": "SwapsPremium",
  "sourceName": "examples/swaps-premium/contracts/SwapsPremium.sol",
  "abi": [
    {
      "anonymous": false,
      "inputs": [
        {
          "indexed": true,
          "internalType": "address",
          "name": "provider",
          "type": "address"
        },
        {
          "indexed": false,
          "internalType": "euint32",
          "name": "amountA",
          "type": "uint32"
        },
        {
          "indexed": false,
          "internalType": "euint32",
          "name": "amountB",
          "type": "uint32"
        }
      ],
      "name": "LiquidityAdded",
      "type": "event"
    },
    {
      "anonymous": false,
      "inputs": [
        {
          "indexed": true,
          "internalType": "address",
          "name": "trader",
          "type": "address"
        },
        {
          "indexed": false,
          "internalType": "euint32",
          "name": "amountIn",
          "type": "uint32"
        },
        {
          "indexed": false,
          "internalType": "euint32",
          "name": "amountOut",
          "type": "uint32"
        }
      ],
      "name": "Swap",
      "type": "event"
    },
    {
      "inputs": [
        {
          "internalType": "euint32",
          "name": "amountA",
          "type": "uint32"
        },
        {
          "internalType": "euint32",
          "name": "amountB",
          "type": "uint32"
        }
      ],
      "name": "addLiquidity",
      "outputs": [],
      "stateMutability": "nonpayable",
      "type": "function"
    },
    {
      "inputs": [],
      "name": "getReserves",
      "outputs": [
        {
          "internalType": "euint32",
          "name": "",
          "type": "uint32"
        },
        {
          "internalType": "euint32",
          "name": "",
          "type": "uint32"
        }
      ],
      "stateMutability": "view",
      "type": "function"
    },
    {
      "inputs": [],
      "name": "reserveA",
      "outputs": [
        {
          "internalType": "euint32",
          "name": "",
          "type": "uint32"
        }
      ],
      "stateMutability": "view",
      "type": "function"
    },
    {
      "inputs": [],
      "name": "reserveB",
      "outputs": [
        {
          "internalType": "euint32",
          "name": "",
          "type": "uint32"
        }
      ],
      "stateMutability": "view",
      "type": "function"
    },
    {
      "inputs": [
        {
          "internalType": "euint32",
          "name": "amountIn",
          "type": "uint32"
        }
      ],
      "name": "swapAToB",
      "outputs": [
        {
          "internalType": "euint32",
          "name": "",
          "type": "uint32"
        }
      ],
      "stateMutability": "nonpayable",
      "type": "function"
    }
  ],
  "bytecode": "0x608060405234801561000f575f80fd5b5061051c8061001d5f395ff3fe608060405234801561000f575f80fd5b5060043610610055575f3560e01c80630902f1ac146100595780631412643e1461007857806319e36f3b146100a85780635dd27a63146100c6578063dc5fa6c5146100e2575b5f80fd5b610061610100565b60405161006f929190610374565b60405180910390f35b610092600480360381019061008d91906103c9565b61012c565b60405161009f91906103f4565b60405180910390f35b6100b0610215565b6040516100bd91906103f4565b60405180910390f35b6100e060048036038101906100db919061040d565b61022a565b005b6100ea6102ef565b6040516100f791906103f4565b60405180910390f35b5f805f8054906101000a900463ffffffff165f60049054906101000a900463ffffffff16915091509091565b5f6101465f8054906101000a900463ffffffff1683610302565b5f806101000a81548163ffffffff021916908363ffffffff1602179055505f6101805f60049054906101000a900463ffffffff1684610317565b905061019d5f60049054906101000a900463ffffffff1682610317565b5f60046101000a81548163ffffffff021916908363ffffffff1602179055503373ffffffffffffffffffffffffffffffffffffffff167f19443fbaafde4915c6db3ef98af4bfd8989d517769a1340388e966f638f934dd8483604051610204929190610374565b60405180910390a280915050919050565b5f60049054906101000a900463ffffffff1681565b6102435f8054906101000a900463ffffffff1683610302565b5f806101000a81548163ffffffff021916908363ffffffff16021790555061027c5f60049054906101000a900463ffffffff1682610302565b5f60046101000a81548163ffffffff021916908363ffffffff1602179055503373ffffffffffffffffffffffffffffffffffffffff167f5bf1a0836cfa7b9724e8b614f8713598c2922a444a21d253d37f230b972c812f83836040516102e3929190610374565b60405180910390a25050565b5f8054906101000a900463ffffffff1681565b5f818361030f9190610478565b905092915050565b5f818361032491906104af565b905092915050565b5f63ffffffff82169050919050565b5f819050919050565b5f61035e6103596103548461032c565b61033b565b61032c565b9050919050565b61036e81610344565b82525050565b5f6040820190506103875f830185610365565b6103946020830184610365565b9392505050565b5f80fd5b6103a88161032c565b81146103b2575f80fd5b50565b5f813590506103c38161039f565b92915050565b5f602082840312156103de576103dd61039b565b5b5f6103eb848285016103b5565b91505092915050565b5f6020820190506104075f830184610365565b92915050565b5f80604083850312156104235761042261039b565b5b5f610430858286016103b5565b9250506020610441858286016103b5565b9150509250929050565b7f4e487b71000000000000000000000000000000000000000000000000000000005f52601160045260245ffd5b5f6104828261032c565b915061048d8361032c565b9250828201905063ffffffff8111156104a9576104a861044b565b5b92915050565b5f6104b98261032c565b91506104c48361032c565b9250828203905063ffffffff8111156104e0576104df61044b565b5b9291505056fea264697066735822122072c52e6fbacaaf1ea9b7a615f1670e4a91761cd5b91ff5cb85bed7a9b678919b64736f6c63430008180033",
  "linkReferences": {},
  "deployedLinkReferences": {},
  "immutableReferences": {},
  "inputSourceName": "project/examples/swaps-premium/contracts/SwapsPremium.sol",
  "buildInfoId": "solc-0_8_24-c87bbb38104db827434223d5a4ba7b195ca4c66e"
}