{
  "_format": "hh3-artifact-1",
  "contractName": "BlindAuctionPremium",
  "sourceName": "examples/blind-auction-premium/contracts/BlindAuctionPremium.sol",
  "abi": [
    {
      "inputs": [],
      "stateMutability": "nonpayable",
      "type": "constructor"
    },
    {
      "anonymous": false,
      "inputs": [],
      "name": "AuctionClosed",
      "type": "event"
    },
    {
      "anonymous": false,
      "inputs": [
        {
          "indexed": true,
          "internalType": "address",
          "name": "winner",
          "type": "address"
        },
        {
          "indexed": false,
          "internalType": "euint32",
          "name": "encryptedWinningBid",
          "type": "uint32"
        }
      ],
      "name": "AuctionFinalized",
      "type": "event"
    },
    {
      "anonymous": false,
      "inputs": [
        {
          "indexed": true,
          "internalType": "address",
          "name": "bidder",
          "type": "address"
        },
        {
          "indexed": false,
          "internalType": "euint32",
          "name": "encryptedBid",
          "type": "uint32"
        }
      ],
      "name": "BidSubmitted",
      "type": "event"
    },
    {
      "inputs": [],
      "name": "bidderCount",
      "outputs": [
        {
          "internalType": "uint256",
          "name": "",
          "type": "uint256"
        }
      ],
      "stateMutability": "view",
      "type": "function"
    },
    {
      "inputs": [
        {
          "internalType": "uint256",
          "name": "",
          "type": "uint256"
        }
      ],
      "name": "bidders",
      "outputs": [
        {
          "internalType": "address",
          "name": "",
          "type": "address"
        }
      ],
      "stateMutability": "view",
      "type": "function"
    },
    {
      "inputs": [],
      "name": "closeBidding",
      "outputs": [],
      "stateMutability": "nonpayable",
      "type": "function"
    },
    {
      "inputs": [
        {
          "internalType": "address",
          "name": "",
          "type": "address"
        }
      ],
      "name": "encryptedBids",
      "outputs": [
        {
          "internalType": "euint32",
          "name": "",
          "type": "uint32"
        }
      ],
      "stateMutability": "view",
      "type": "function"
    },
    {
      "inputs": [
        {
          "internalType": "address",
          "name": "_winner",
          "type": "address"
        },
        {
          "internalType": "euint32",
          "name": "_winningBid",
          "type": "uint32"
        }
      ],
      "name": "finalizeAuction",
      "outputs": [],
      "stateMutability": "nonpayable",
      "type": "function"
    },
    {
      "inputs": [],
      "name": "owner",
      "outputs": [
        {
          "internalType": "address",
          "name": "",
          "type": "address"
        }
      ],
      "stateMutability": "view",
      "type": "function"
    },
    {
      "inputs": [],
      "name": "phase",
      "outputs": [
        {
          "internalType": "enum BlindAuctionPremium.Phase",
          "name": "",
          "type": "uint8"
        }
      ],
      "stateMutability": "view",
      "type": "function"
    },
    {
      "inputs": [
        {
          "internalType": "euint32",
          "name": "encryptedBid",
          "type": "uint32"
        }
      ],
      "name": "submitBid",
      "outputs": [],
      "stateMutability": "nonpayable",
      "type": "function"
    },
    {
      "inputs": [],
      "name": "winner",
      "outputs": [
        {
          "internalType": "address",
          "name": "",
          "type": "address"
        }
      ],
      "stateMutability": "view",
      "type": "function"
    },
    {
      "inputs": [],
      "name": "winningBid",
      "outputs": [
        {
          "internalType": "euint32",
          "name": "",
          "type": "uint32"
        }
      ],
      "stateMutability": "view",
      "type": "function"
    }
  ],
  "bytecode": "0x608060405234801561000f575f80fd5b50335f806101000a81548173ffffffffffffffffffffffffffffffffffffffff021916908373ffffffffffffffffffffffffffffffffffffffff1602179055505f8060146101000a81548160ff021916908360028111156100735761007261007d565b5b02179055506100aa565b7f4e487b71000000000000000000000000000000000000000000000000000000005f52602160045260245ffd5b610cb6806100b75f395ff3fe608060405234801561000f575f80fd5b506004361061009c575f3560e01c80638da5cb5b116100645780638da5cb5b14610132578063b1c9fe6e14610150578063b8684ee61461016e578063cff29dfd1461018a578063dfbf53ae146101ba5761009c565b80630f3f02b2146100a05780635df5e639146100d057806370d29c11146100da57806376444980146100f85780638cf8043814610114575b5f80fd5b6100ba60048036038101906100b59190610877565b6101d8565b6040516100c791906108ea565b60405180910390f35b6100d86101f8565b005b6100e2610351565b6040516100ef919061091b565b60405180910390f35b610112600480360381019061010d919061095e565b61035d565b005b61011c61057e565b60405161012991906108ea565b60405180910390f35b61013a610594565b6040516101479190610998565b60405180910390f35b6101586105b7565b6040516101659190610a24565b60405180910390f35b61018860048036038101906101839190610a3d565b6105c9565b005b6101a4600480360381019061019f9190610aa5565b6107a8565b6040516101b19190610998565b60405180910390f35b6101c26107e3565b6040516101cf9190610998565b60405180910390f35b6001602052805f5260405f205f915054906101000a900463ffffffff1681565b5f8054906101000a900473ffffffffffffffffffffffffffffffffffffffff1673ffffffffffffffffffffffffffffffffffffffff163373ffffffffffffffffffffffffffffffffffffffff1614610285576040517f08c379a000000000000000000000000000000000000000000000000000000000815260040161027c90610b2a565b60405180910390fd5b5f6002811115610298576102976109b1565b5b5f60149054906101000a900460ff1660028111156102b9576102b86109b1565b5b146102f9576040517f08c379a00000000000000000000000000000000000000000000000000000000081526004016102f090610b92565b60405180910390fd5b60015f60146101000a81548160ff0219169083600281111561031e5761031d6109b1565b5b02179055507f36b6b46dc27de0e2e7407f09bfad8e27b837c2ce3153a08fdebf9279d2cd22b760405160405180910390a1565b5f600280549050905090565b5f60028111156103705761036f6109b1565b5b5f60149054906101000a900460ff166002811115610391576103906109b1565b5b146103d1576040517f08c379a00000000000000000000000000000000000000000000000000000000081526004016103c890610bfa565b60405180910390fd5b61042660015f3373ffffffffffffffffffffffffffffffffffffffff1673ffffffffffffffffffffffffffffffffffffffff1681526020019081526020015f205f9054906101000a900463ffffffff16610808565b610430575f610433565b60015b610472576040517f08c379a000000000000000000000000000000000000000000000000000000000815260040161046990610c62565b60405180910390fd5b8060015f3373ffffffffffffffffffffffffffffffffffffffff1673ffffffffffffffffffffffffffffffffffffffff1681526020019081526020015f205f6101000a81548163ffffffff021916908363ffffffff160217905550600233908060018154018082558091505060019003905f5260205f20015f9091909190916101000a81548173ffffffffffffffffffffffffffffffffffffffff021916908373ffffffffffffffffffffffffffffffffffffffff1602179055503373ffffffffffffffffffffffffffffffffffffffff167fd7cb6b416f0b2c6c5ecf1297565b75c7a8e7fce61a37c328094185fa18bca6938260405161057391906108ea565b60405180910390a250565b600360149054906101000a900463ffffffff1681565b5f8054906101000a900473ffffffffffffffffffffffffffffffffffffffff1681565b5f60149054906101000a900460ff1681565b5f8054906101000a900473ffffffffffffffffffffffffffffffffffffffff1673ffffffffffffffffffffffffffffffffffffffff163373ffffffffffffffffffffffffffffffffffffffff1614610656576040517f08c379a000000000000000000000000000000000000000000000000000000000815260040161064d90610b2a565b60405180910390fd5b6001600281111561066a576106696109b1565b5b5f60149054906101000a900460ff16600281111561068b5761068a6109b1565b5b146106cb576040517f08c379a00000000000000000000000000000000000000000000000000000000081526004016106c290610b92565b60405180910390fd5b8160035f6101000a81548173ffffffffffffffffffffffffffffffffffffffff021916908373ffffffffffffffffffffffffffffffffffffffff16021790555080600360146101000a81548163ffffffff021916908363ffffffff16021790555060025f60146101000a81548160ff02191690836002811115610751576107506109b1565b5b02179055508173ffffffffffffffffffffffffffffffffffffffff167faf94fffe96d850fee8913d6b24c6f815032318762920823fde7a342594364a878260405161079c91906108ea565b60405180910390a25050565b600281815481106107b7575f80fd5b905f5260205f20015f915054906101000a900473ffffffffffffffffffffffffffffffffffffffff1681565b60035f9054906101000a900473ffffffffffffffffffffffffffffffffffffffff1681565b5f808263ffffffff16149050919050565b5f80fd5b5f73ffffffffffffffffffffffffffffffffffffffff82169050919050565b5f6108468261081d565b9050919050565b6108568161083c565b8114610860575f80fd5b50565b5f813590506108718161084d565b92915050565b5f6020828403121561088c5761088b610819565b5b5f61089984828501610863565b91505092915050565b5f63ffffffff82169050919050565b5f819050919050565b5f6108d46108cf6108ca846108a2565b6108b1565b6108a2565b9050919050565b6108e4816108ba565b82525050565b5f6020820190506108fd5f8301846108db565b92915050565b5f819050919050565b61091581610903565b82525050565b5f60208201905061092e5f83018461090c565b92915050565b61093d816108a2565b8114610947575f80fd5b50565b5f8135905061095881610934565b92915050565b5f6020828403121561097357610972610819565b5b5f6109808482850161094a565b91505092915050565b6109928161083c565b82525050565b5f6020820190506109ab5f830184610989565b92915050565b7f4e487b71000000000000000000000000000000000000000000000000000000005f52602160045260245ffd5b600381106109ef576109ee6109b1565b5b50565b5f8190506109ff826109de565b919050565b5f610a0e826109f2565b9050919050565b610a1e81610a04565b82525050565b5f602082019050610a375f830184610a15565b92915050565b5f8060408385031215610a5357610a52610819565b5b5f610a6085828601610863565b9250506020610a718582860161094a565b9150509250929050565b610a8481610903565b8114610a8e575f80fd5b50565b5f81359050610a9f81610a7b565b92915050565b5f60208284031215610aba57610ab9610819565b5b5f610ac784828501610a91565b91505092915050565b5f82825260208201905092915050565b7f6e6f742d6f776e657200000000000000000000000000000000000000000000005f82015250565b5f610b14600983610ad0565b9150610b1f82610ae0565b602082019050919050565b5f6020820190508181035f830152610b4181610b08565b9050919050565b7f77726f6e672d70686173650000000000000000000000000000000000000000005f82015250565b5f610b7c600b83610ad0565b9150610b8782610b48565b602082019050919050565b5f6020820190508181035f830152610ba981610b70565b9050919050565b7f6e6f742d61756374696f6e2d70686173650000000000000000000000000000005f82015250565b5f610be4601183610ad0565b9150610bef82610bb0565b602082019050919050565b5f6020820190508181035f830152610c1181610bd8565b9050919050565b7f616c72656164792d6269640000000000000000000000000000000000000000005f82015250565b5f610c4c600b83610ad0565b9150610c5782610c18565b602082019050919050565b5f6020820190508181035f830152610c7981610c40565b905091905056fea26469706673582212206a0764de87c61bf998ea97d358d9e248dc5f3bb329a084808007b085ca2dbfbb64736f6c63430008180033",
  "linkReferences": {},
  "deployedLinkReferences": {},
  "immutableReferences": {},
  "inputSourceName": "project/examples/blind-auction-premium/contracts/BlindAuctionPremium.sol",
  "buildInfoId": "solc-0_8_24-c87bbb38104db827434223d5a4ba7b195ca4c66e"
}