{
  "_format": "hh3-artifact-1",
  "contractName": "SingleEncryptionPremium",
  "sourceName": "examples/single-encryption-premium/contracts/SingleEncryptionPremium.sol",
  "abi": [
    {
      "inputs": [],
      "stateMutability": "nonpayable",
      "type": "constructor"
    },
    {
      "anonymous": false,
      "inputs": [
        {
          "indexed": true,
          "internalType": "address",
          "name": "caller",
          "type": "address"
        },
        {
          "indexed": false,
          "internalType": "uint256",
          "name": "count",
          "type": "uint256"
        }
      ],
      "name": "Aggregated",
      "type": "event"
    },
    {
      "anonymous": false,
      "inputs": [
        {
          "indexed": true,
          "internalType": "address",
          "name": "caller",
          "type": "address"
        }
      ],
      "name": "Cleared",
      "type": "event"
    },
    {
      "anonymous": false,
      "inputs": [
        {
          "indexed": true,
          "internalType": "address",
          "name": "submitter",
          "type": "address"
        }
      ],
      "name": "Submitted",
      "type": "event"
    },
    {
      "inputs": [],
      "name": "MAX_AGGREGATE",
      "outputs": [
        {
          "internalType": "uint8",
          "name": "",
          "type": "uint8"
        }
      ],
      "stateMutability": "view",
      "type": "function"
    },
    {
      "inputs": [
        {
          "internalType": "address[]",
          "name": "addrs",
          "type": "address[]"
        }
      ],
      "name": "aggregate",
      "outputs": [
        {
          "internalType": "euint32",
          "name": "sum",
          "type": "uint32"
        }
      ],
      "stateMutability": "view",
      "type": "function"
    },
    {
      "inputs": [],
      "name": "aggregateAll",
      "outputs": [
        {
          "internalType": "euint32",
          "name": "sum",
          "type": "uint32"
        }
      ],
      "stateMutability": "view",
      "type": "function"
    },
    {
      "inputs": [
        {
          "internalType": "address[]",
          "name": "arr",
          "type": "address[]"
        }
      ],
      "name": "antiPattern_unboundedAggregation",
      "outputs": [],
      "stateMutability": "pure",
      "type": "function"
    },
    {
      "inputs": [],
      "name": "clearSubmissions",
      "outputs": [],
      "stateMutability": "nonpayable",
      "type": "function"
    },
    {
      "inputs": [
        {
          "internalType": "address",
          "name": "who",
          "type": "address"
        }
      ],
      "name": "getEncryptedFor",
      "outputs": [
        {
          "internalType": "euint32",
          "name": "",
          "type": "uint32"
        }
      ],
      "stateMutability": "view",
      "type": "function"
    },
    {
      "inputs": [],
      "name": "getSubmittersCount",
      "outputs": [
        {
          "internalType": "uint256",
          "name": "",
          "type": "uint256"
        }
      ],
      "stateMutability": "view",
      "type": "function"
    },
    {
      "inputs": [
        {
          "internalType": "address",
          "name": "newOwner",
          "type": "address"
        }
      ],
      "name": "setOwner",
      "outputs": [],
      "stateMutability": "nonpayable",
      "type": "function"
    },
    {
      "inputs": [
        {
          "internalType": "euint32",
          "name": "value",
          "type": "uint32"
        }
      ],
      "name": "submitEncrypted",
      "outputs": [],
      "stateMutability": "nonpayable",
      "type": "function"
    }
  ],
  "bytecode": "0x608060405234801561000f575f80fd5b506040518060400160405280601781526020017f53696e676c65456e6372797074696f6e5072656d69756d0000000000000000008152506040518060400160405280600181526020017f310000000000000000000000000000000000000000000000000000000000000081525050503360035f6101000a81548173ffffffffffffffffffffffffffffffffffffffff021916908373ffffffffffffffffffffffffffffffffffffffff160217905550610e2f806100cb5f395ff3fe608060405234801561000f575f80fd5b5060043610610091575f3560e01c80635d482180116100645780635d482180146101095780638a72d5cd14610139578063939e79201461015757806399e9cae614610173578063d4502ad81461017d57610091565b80630f1dffb41461009557806313af4035146100b3578063445c84c2146100cf578063479ff1e8146100ed575b5f80fd5b61009d6101ad565b6040516100aa9190610a14565b60405180910390f35b6100cd60048036038101906100c89190610a8f565b610311565b005b6100d76103e3565b6040516100e49190610ad5565b60405180910390f35b61010760048036038101906101029190610b4f565b6103e8565b005b610123600480360381019061011e9190610a8f565b6103fd565b6040516101309190610a14565b60405180910390f35b610141610451565b60405161014e9190610bb2565b60405180910390f35b610171600480360381019061016c9190610bf5565b61045d565b005b61017b610601565b005b61019760048036038101906101929190610b4f565b61082b565b6040516101a49190610a14565b60405180910390f35b5f601460ff1660018054905011156101fa576040517f08c379a00000000000000000000000000000000000000000000000000000000081526004016101f190610c7a565b60405180910390fd5b5f6102045f610975565b90505f5b600180549050811015610309575f6001828154811061022a57610229610c98565b5b905f5260205f20015f9054906101000a900473ffffffffffffffffffffffffffffffffffffffff16905060025f8273ffffffffffffffffffffffffffffffffffffffff1673ffffffffffffffffffffffffffffffffffffffff1681526020019081526020015f205f9054906101000a900460ff16156102fb576102f8835f808473ffffffffffffffffffffffffffffffffffffffff1673ffffffffffffffffffffffffffffffffffffffff1681526020019081526020015f205f9054906101000a900463ffffffff1661097e565b92505b508080600101915050610208565b508091505090565b60035f9054906101000a900473ffffffffffffffffffffffffffffffffffffffff1673ffffffffffffffffffffffffffffffffffffffff163373ffffffffffffffffffffffffffffffffffffffff16146103a0576040517f08c379a000000000000000000000000000000000000000000000000000000000815260040161039790610d0f565b60405180910390fd5b8060035f6101000a81548173ffffffffffffffffffffffffffffffffffffffff021916908373ffffffffffffffffffffffffffffffffffffffff16021790555050565b601481565b6103e88282905011156103f9575f80fd5b5050565b5f805f8373ffffffffffffffffffffffffffffffffffffffff1673ffffffffffffffffffffffffffffffffffffffff1681526020019081526020015f205f9054906101000a900463ffffffff169050919050565b5f600180549050905090565b60025f3373ffffffffffffffffffffffffffffffffffffffff1673ffffffffffffffffffffffffffffffffffffffff1681526020019081526020015f205f9054906101000a900460ff1661056157600133908060018154018082558091505060019003905f5260205f20015f9091909190916101000a81548173ffffffffffffffffffffffffffffffffffffffff021916908373ffffffffffffffffffffffffffffffffffffffff160217905550600160025f3373ffffffffffffffffffffffffffffffffffffffff1673ffffffffffffffffffffffffffffffffffffffff1681526020019081526020015f205f6101000a81548160ff0219169083151502179055505b805f803373ffffffffffffffffffffffffffffffffffffffff1673ffffffffffffffffffffffffffffffffffffffff1681526020019081526020015f205f6101000a81548163ffffffff021916908363ffffffff1602179055503373ffffffffffffffffffffffffffffffffffffffff167f1ed657d5540dc57b6181fb8e1b90fa1620897560baf17d1646f17d12ff256cb760405160405180910390a250565b60035f9054906101000a900473ffffffffffffffffffffffffffffffffffffffff1673ffffffffffffffffffffffffffffffffffffffff163373ffffffffffffffffffffffffffffffffffffffff1614610690576040517f08c379a000000000000000000000000000000000000000000000000000000000815260040161068790610d0f565b60405180910390fd5b5f5b6001805490508110156107d8576106a85f610975565b5f80600184815481106106be576106bd610c98565b5b905f5260205f20015f9054906101000a900473ffffffffffffffffffffffffffffffffffffffff1673ffffffffffffffffffffffffffffffffffffffff1673ffffffffffffffffffffffffffffffffffffffff1681526020019081526020015f205f6101000a81548163ffffffff021916908363ffffffff1602179055505f60025f6001848154811061075457610753610c98565b5b905f5260205f20015f9054906101000a900473ffffffffffffffffffffffffffffffffffffffff1673ffffffffffffffffffffffffffffffffffffffff1673ffffffffffffffffffffffffffffffffffffffff1681526020019081526020015f205f6101000a81548160ff0219169083151502179055508080600101915050610692565b5060015f6107e69190610993565b3373ffffffffffffffffffffffffffffffffffffffff167f8149fda9906b1fb15b92f20b43fb25bfb197ed66698fe3ac37ca8818112cd10460405160405180910390a2565b5f601460ff16838390501115610876576040517f08c379a000000000000000000000000000000000000000000000000000000000815260040161086d90610d77565b60405180910390fd5b61087f5f610975565b90505f5b8383905081101561096e575f8484838181106108a2576108a1610c98565b5b90506020020160208101906108b79190610a8f565b905060025f8273ffffffffffffffffffffffffffffffffffffffff1673ffffffffffffffffffffffffffffffffffffffff1681526020019081526020015f205f9054906101000a900460ff16156109605761095d835f808473ffffffffffffffffffffffffffffffffffffffff1673ffffffffffffffffffffffffffffffffffffffff1681526020019081526020015f205f9054906101000a900463ffffffff1661097e565b92505b508080600101915050610883565b5092915050565b5f819050919050565b5f818361098b9190610dc2565b905092915050565b5080545f8255905f5260205f20908101906109ae91906109b1565b50565b5b808211156109c8575f815f9055506001016109b2565b5090565b5f63ffffffff82169050919050565b5f819050919050565b5f6109fe6109f96109f4846109cc565b6109db565b6109cc565b9050919050565b610a0e816109e4565b82525050565b5f602082019050610a275f830184610a05565b92915050565b5f80fd5b5f80fd5b5f73ffffffffffffffffffffffffffffffffffffffff82169050919050565b5f610a5e82610a35565b9050919050565b610a6e81610a54565b8114610a78575f80fd5b50565b5f81359050610a8981610a65565b92915050565b5f60208284031215610aa457610aa3610a2d565b5b5f610ab184828501610a7b565b91505092915050565b5f60ff82169050919050565b610acf81610aba565b82525050565b5f602082019050610ae85f830184610ac6565b92915050565b5f80fd5b5f80fd5b5f80fd5b5f8083601f840112610b0f57610b0e610aee565b5b8235905067ffffffffffffffff811115610b2c57610b2b610af2565b5b602083019150836020820283011115610b4857610b47610af6565b5b9250929050565b5f8060208385031215610b6557610b64610a2d565b5b5f83013567ffffffffffffffff811115610b8257610b81610a31565b5b610b8e85828601610afa565b92509250509250929050565b5f819050919050565b610bac81610b9a565b82525050565b5f602082019050610bc55f830184610ba3565b92915050565b610bd4816109cc565b8114610bde575f80fd5b50565b5f81359050610bef81610bcb565b92915050565b5f60208284031215610c0a57610c09610a2d565b5b5f610c1784828501610be1565b91505092915050565b5f82825260208201905092915050565b7f7375626d6974746572732d746f6f2d6d616e79000000000000000000000000005f82015250565b5f610c64601383610c20565b9150610c6f82610c30565b602082019050919050565b5f6020820190508181035f830152610c9181610c58565b9050919050565b7f4e487b71000000000000000000000000000000000000000000000000000000005f52603260045260245ffd5b7f6f6e6c792d6f776e6572000000000000000000000000000000000000000000005f82015250565b5f610cf9600a83610c20565b9150610d0482610cc5565b602082019050919050565b5f6020820190508181035f830152610d2681610ced565b9050919050565b7f746f6f2d6d616e792d61646472730000000000000000000000000000000000005f82015250565b5f610d61600e83610c20565b9150610d6c82610d2d565b602082019050919050565b5f6020820190508181035f830152610d8e81610d55565b9050919050565b7f4e487b71000000000000000000000000000000000000000000000000000000005f52601160045260245ffd5b5f610dcc826109cc565b9150610dd7836109cc565b9250828201905063ffffffff811115610df357610df2610d95565b5b9291505056fea26469706673582212204512d9a2ccf59b8254049a50f19db0d3954aee34a25ca191d17a4076b853449b64736f6c63430008180033",
  "linkReferences": {},
  "deployedLinkReferences": {},
  "immutableReferences": {},
  "inputSourceName": "project/examples/single-encryption-premium/contracts/SingleEncryptionPremium.sol",
  "buildInfoId": "solc-0_8_24-c87bbb38104db827434223d5a4ba7b195ca4c66e"
}