{
  "_format": "hh3-artifact-1",
  "contractName": "PrivateLendingPremium",
  "sourceName": "examples/private-lending-premium/contracts/PrivateLendingPremium.sol",
  "abi": [
    {
      "inputs": [],
      "stateMutability": "nonpayable",
      "type": "constructor"
    },
    {
      "anonymous": false,
      "inputs": [
        {
          "indexed": true,
          "internalType": "uint256",
          "name": "id",
          "type": "uint256"
        },
        {
          "indexed": true,
          "internalType": "address",
          "name": "borrower",
          "type": "address"
        },
        {
          "indexed": false,
          "internalType": "uint64",
          "name": "startAt",
          "type": "uint64"
        }
      ],
      "name": "LoanAccepted",
      "type": "event"
    },
    {
      "anonymous": false,
      "inputs": [
        {
          "indexed": true,
          "internalType": "uint256",
          "name": "id",
          "type": "uint256"
        },
        {
          "indexed": true,
          "internalType": "address",
          "name": "lender",
          "type": "address"
        }
      ],
      "name": "LoanLiquidated",
      "type": "event"
    },
    {
      "anonymous": false,
      "inputs": [
        {
          "indexed": true,
          "internalType": "uint256",
          "name": "id",
          "type": "uint256"
        },
        {
          "indexed": true,
          "internalType": "address",
          "name": "lender",
          "type": "address"
        }
      ],
      "name": "LoanOfferCreated",
      "type": "event"
    },
    {
      "anonymous": false,
      "inputs": [
        {
          "indexed": true,
          "internalType": "uint256",
          "name": "id",
          "type": "uint256"
        },
        {
          "indexed": true,
          "internalType": "address",
          "name": "borrower",
          "type": "address"
        }
      ],
      "name": "LoanRepaid",
      "type": "event"
    },
    {
      "inputs": [
        {
          "internalType": "uint256",
          "name": "id",
          "type": "uint256"
        }
      ],
      "name": "acceptOffer",
      "outputs": [],
      "stateMutability": "nonpayable",
      "type": "function"
    },
    {
      "inputs": [
        {
          "internalType": "euint32",
          "name": "principal",
          "type": "uint32"
        },
        {
          "internalType": "euint32",
          "name": "collateral",
          "type": "uint32"
        },
        {
          "internalType": "uint64",
          "name": "duration",
          "type": "uint64"
        }
      ],
      "name": "createOffer",
      "outputs": [
        {
          "internalType": "uint256",
          "name": "",
          "type": "uint256"
        }
      ],
      "stateMutability": "nonpayable",
      "type": "function"
    },
    {
      "inputs": [
        {
          "internalType": "uint256",
          "name": "id",
          "type": "uint256"
        }
      ],
      "name": "liquidate",
      "outputs": [],
      "stateMutability": "nonpayable",
      "type": "function"
    },
    {
      "inputs": [],
      "name": "offerCount",
      "outputs": [
        {
          "internalType": "uint256",
          "name": "",
          "type": "uint256"
        }
      ],
      "stateMutability": "view",
      "type": "function"
    },
    {
      "inputs": [
        {
          "internalType": "uint256",
          "name": "id",
          "type": "uint256"
        }
      ],
      "name": "offerInfo",
      "outputs": [
        {
          "internalType": "address",
          "name": "",
          "type": "address"
        },
        {
          "internalType": "address",
          "name": "",
          "type": "address"
        },
        {
          "internalType": "euint32",
          "name": "",
          "type": "uint32"
        },
        {
          "internalType": "euint32",
          "name": "",
          "type": "uint32"
        },
        {
          "internalType": "uint64",
          "name": "",
          "type": "uint64"
        },
        {
          "internalType": "uint64",
          "name": "",
          "type": "uint64"
        },
        {
          "internalType": "bool",
          "name": "",
          "type": "bool"
        },
        {
          "internalType": "bool",
          "name": "",
          "type": "bool"
        }
      ],
      "stateMutability": "view",
      "type": "function"
    },
    {
      "inputs": [
        {
          "internalType": "uint256",
          "name": "",
          "type": "uint256"
        }
      ],
      "name": "offers",
      "outputs": [
        {
          "internalType": "address",
          "name": "lender",
          "type": "address"
        },
        {
          "internalType": "address",
          "name": "borrower",
          "type": "address"
        },
        {
          "internalType": "euint32",
          "name": "principal",
          "type": "uint32"
        },
        {
          "internalType": "euint32",
          "name": "collateral",
          "type": "uint32"
        },
        {
          "internalType": "uint64",
          "name": "duration",
          "type": "uint64"
        },
        {
          "internalType": "uint64",
          "name": "startAt",
          "type": "uint64"
        },
        {
          "internalType": "bool",
          "name": "active",
          "type": "bool"
        },
        {
          "internalType": "bool",
          "name": "repaid",
          "type": "bool"
        },
        {
          "internalType": "bool",
          "name": "exists",
          "type": "bool"
        }
      ],
      "stateMutability": "view",
      "type": "function"
    },
    {
      "inputs": [],
      "name": "owner",
      "outputs": [
        {
          "internalType": "address",
          "name": "",
          "type": "address"
        }
      ],
      "stateMutability": "view",
      "type": "function"
    },
    {
      "inputs": [
        {
          "internalType": "uint256",
          "name": "id",
          "type": "uint256"
        },
        {
          "internalType": "euint32",
          "name": "repayEncrypted",
          "type": "uint32"
        }
      ],
      "name": "repayLoan",
      "outputs": [],
      "stateMutability": "nonpayable",
      "type": "function"
    }
  ],
  "bytecode": "0x608060405234801561000f575f80fd5b50335f806101000a81548173ffffffffffffffffffffffffffffffffffffffff021916908373ffffffffffffffffffffffffffffffffffffffff1602179055506113ec8061005c5f395ff3fe608060405234801561000f575f80fd5b5060043610610086575f3560e01c80637b28738a116100595780637b28738a1461012b5780638a72ea6a146101475780638da5cb5b1461017f578063c815729d1461019d57610086565b80631115c24d1461008a57806335d2e1ed146100a8578063415f1240146100df5780634a4e2359146100fb575b5f80fd5b6100926101b9565b60405161009f9190610ccf565b60405180910390f35b6100c260048036038101906100bd9190610d16565b6101bf565b6040516100d6989796959493929190610e04565b60405180910390f35b6100f960048036038101906100f49190610d16565b6102bd565b005b61011560048036038101906101109190610ed4565b6104f8565b6040516101229190610ccf565b60405180910390f35b61014560048036038101906101409190610f24565b6107ea565b005b610161600480360381019061015c9190610d16565b6109b3565b60405161017699989796959493929190610f62565b60405180910390f35b610187610aa9565b6040516101949190610fed565b60405180910390f35b6101b760048036038101906101b29190610d16565b610acc565b005b60015481565b5f805f805f805f805f60025f8b81526020019081526020015f209050805f015f9054906101000a900473ffffffffffffffffffffffffffffffffffffffff16816001015f9054906101000a900473ffffffffffffffffffffffffffffffffffffffff168260010160149054906101000a900463ffffffff168360010160189054906101000a900463ffffffff16846002015f9054906101000a900467ffffffffffffffff168560020160089054906101000a900467ffffffffffffffff168660020160109054906101000a900460ff168760020160119054906101000a900460ff169850985098509850985098509850985050919395975091939597565b5f60025f8381526020019081526020015f2090508060020160129054906101000a900460ff16610322576040517f08c379a000000000000000000000000000000000000000000000000000000000815260040161031990611060565b60405180910390fd5b3373ffffffffffffffffffffffffffffffffffffffff16815f015f9054906101000a900473ffffffffffffffffffffffffffffffffffffffff1673ffffffffffffffffffffffffffffffffffffffff16146103b2576040517f08c379a00000000000000000000000000000000000000000000000000000000081526004016103a9906110c8565b60405180910390fd5b8060020160109054906101000a900460ff16610403576040517f08c379a00000000000000000000000000000000000000000000000000000000081526004016103fa90611130565b60405180910390fd5b806002015f9054906101000a900467ffffffffffffffff168160020160089054906101000a900467ffffffffffffffff1661043e919061117b565b67ffffffffffffffff164267ffffffffffffffff161015610494576040517f08c379a000000000000000000000000000000000000000000000000000000000815260040161048b90611200565b60405180910390fd5b5f8160020160106101000a81548160ff0219169083151502179055503373ffffffffffffffffffffffffffffffffffffffff16827f73de9acc561f27528ab0a3b5dd63fefb4e59f95575891299a6f862a78779817660405160405180910390a35050565b5f808267ffffffffffffffff1611610545576040517f08c379a000000000000000000000000000000000000000000000000000000000815260040161053c90611268565b60405180910390fd5b5f60015f81548092919061055890611286565b9190505590506040518061012001604052803373ffffffffffffffffffffffffffffffffffffffff1681526020015f73ffffffffffffffffffffffffffffffffffffffff1681526020018663ffffffff1681526020018563ffffffff1681526020018467ffffffffffffffff1681526020015f67ffffffffffffffff1681526020015f151581526020015f151581526020016001151581525060025f8381526020019081526020015f205f820151815f015f6101000a81548173ffffffffffffffffffffffffffffffffffffffff021916908373ffffffffffffffffffffffffffffffffffffffff1602179055506020820151816001015f6101000a81548173ffffffffffffffffffffffffffffffffffffffff021916908373ffffffffffffffffffffffffffffffffffffffff16021790555060408201518160010160146101000a81548163ffffffff021916908363ffffffff16021790555060608201518160010160186101000a81548163ffffffff021916908363ffffffff1602179055506080820151816002015f6101000a81548167ffffffffffffffff021916908367ffffffffffffffff16021790555060a08201518160020160086101000a81548167ffffffffffffffff021916908367ffffffffffffffff16021790555060c08201518160020160106101000a81548160ff02191690831515021790555060e08201518160020160116101000a81548160ff0219169083151502179055506101008201518160020160126101000a81548160ff0219169083151502179055509050503373ffffffffffffffffffffffffffffffffffffffff16817fa2cdc1ed7c594ae9d08a690969770aea611cc117ebca63ccdeea9a671a886b7960405160405180910390a3809150509392505050565b5f60025f8481526020019081526020015f2090508060020160129054906101000a900460ff1661084f576040517f08c379a000000000000000000000000000000000000000000000000000000000815260040161084690611060565b60405180910390fd5b8060020160109054906101000a900460ff166108a0576040517f08c379a000000000000000000000000000000000000000000000000000000000815260040161089790611130565b60405180910390fd5b3373ffffffffffffffffffffffffffffffffffffffff16816001015f9054906101000a900473ffffffffffffffffffffffffffffffffffffffff1673ffffffffffffffffffffffffffffffffffffffff1614610931576040517f08c379a000000000000000000000000000000000000000000000000000000000815260040161092890611317565b60405180910390fd5b60018160020160116101000a81548160ff0219169083151502179055505f8160020160106101000a81548160ff0219169083151502179055503373ffffffffffffffffffffffffffffffffffffffff16837fe69d7686a8bc68278b8c5419579f91716b3ef2ac2fac0d8cf80b8011f8f458a460405160405180910390a3505050565b6002602052805f5260405f205f91509050805f015f9054906101000a900473ffffffffffffffffffffffffffffffffffffffff1690806001015f9054906101000a900473ffffffffffffffffffffffffffffffffffffffff16908060010160149054906101000a900463ffffffff16908060010160189054906101000a900463ffffffff1690806002015f9054906101000a900467ffffffffffffffff16908060020160089054906101000a900467ffffffffffffffff16908060020160109054906101000a900460ff16908060020160119054906101000a900460ff16908060020160129054906101000a900460ff16905089565b5f8054906101000a900473ffffffffffffffffffffffffffffffffffffffff1681565b5f60025f8381526020019081526020015f2090508060020160129054906101000a900460ff16610b31576040517f08c379a0000000000000000000000000000000000000000000000000000000008152600401610b2890611060565b60405180910390fd5b5f73ffffffffffffffffffffffffffffffffffffffff16816001015f9054906101000a900473ffffffffffffffffffffffffffffffffffffffff1673ffffffffffffffffffffffffffffffffffffffff1614610bc2576040517f08c379a0000000000000000000000000000000000000000000000000000000008152600401610bb99061137f565b60405180910390fd5b33816001015f6101000a81548173ffffffffffffffffffffffffffffffffffffffff021916908373ffffffffffffffffffffffffffffffffffffffff160217905550428160020160086101000a81548167ffffffffffffffff021916908367ffffffffffffffff16021790555060018160020160106101000a81548160ff0219169083151502179055503373ffffffffffffffffffffffffffffffffffffffff16827fde7ceda43be1d2f568133e0e7add769d05f3bd165fff15f3fad615709225f90c8360020160089054906101000a900467ffffffffffffffff16604051610cab919061139d565b60405180910390a35050565b5f819050919050565b610cc981610cb7565b82525050565b5f602082019050610ce25f830184610cc0565b92915050565b5f80fd5b610cf581610cb7565b8114610cff575f80fd5b50565b5f81359050610d1081610cec565b92915050565b5f60208284031215610d2b57610d2a610ce8565b5b5f610d3884828501610d02565b91505092915050565b5f73ffffffffffffffffffffffffffffffffffffffff82169050919050565b5f610d6a82610d41565b9050919050565b610d7a81610d60565b82525050565b5f63ffffffff82169050919050565b5f819050919050565b5f610db2610dad610da884610d80565b610d8f565b610d80565b9050919050565b610dc281610d98565b82525050565b5f67ffffffffffffffff82169050919050565b610de481610dc8565b82525050565b5f8115159050919050565b610dfe81610dea565b82525050565b5f61010082019050610e185f83018b610d71565b610e25602083018a610d71565b610e326040830189610db9565b610e3f6060830188610db9565b610e4c6080830187610ddb565b610e5960a0830186610ddb565b610e6660c0830185610df5565b610e7360e0830184610df5565b9998505050505050505050565b610e8981610d80565b8114610e93575f80fd5b50565b5f81359050610ea481610e80565b92915050565b610eb381610dc8565b8114610ebd575f80fd5b50565b5f81359050610ece81610eaa565b92915050565b5f805f60608486031215610eeb57610eea610ce8565b5b5f610ef886828701610e96565b9350506020610f0986828701610e96565b9250506040610f1a86828701610ec0565b9150509250925092565b5f8060408385031215610f3a57610f39610ce8565b5b5f610f4785828601610d02565b9250506020610f5885828601610e96565b9150509250929050565b5f61012082019050610f765f83018c610d71565b610f83602083018b610d71565b610f90604083018a610db9565b610f9d6060830189610db9565b610faa6080830188610ddb565b610fb760a0830187610ddb565b610fc460c0830186610df5565b610fd160e0830185610df5565b610fdf610100830184610df5565b9a9950505050505050505050565b5f6020820190506110005f830184610d71565b92915050565b5f82825260208201905092915050565b7f6e6f2d6f666665720000000000000000000000000000000000000000000000005f82015250565b5f61104a600883611006565b915061105582611016565b602082019050919050565b5f6020820190508181035f8301526110778161103e565b9050919050565b7f6e6f742d6c656e646572000000000000000000000000000000000000000000005f82015250565b5f6110b2600a83611006565b91506110bd8261107e565b602082019050919050565b5f6020820190508181035f8301526110df816110a6565b9050919050565b7f6e6f742d616374697665000000000000000000000000000000000000000000005f82015250565b5f61111a600a83611006565b9150611125826110e6565b602082019050919050565b5f6020820190508181035f8301526111478161110e565b9050919050565b7f4e487b71000000000000000000000000000000000000000000000000000000005f52601160045260245ffd5b5f61118582610dc8565b915061119083610dc8565b9250828201905067ffffffffffffffff8111156111b0576111af61114e565b5b92915050565b7f6e6f742d6d6174757265640000000000000000000000000000000000000000005f82015250565b5f6111ea600b83611006565b91506111f5826111b6565b602082019050919050565b5f6020820190508181035f830152611217816111de565b9050919050565b7f696e76616c69642d6475726174696f6e000000000000000000000000000000005f82015250565b5f611252601083611006565b915061125d8261121e565b602082019050919050565b5f6020820190508181035f83015261127f81611246565b9050919050565b5f61129082610cb7565b91507fffffffffffffffffffffffffffffffffffffffffffffffffffffffffffffffff82036112c2576112c161114e565b5b600182019050919050565b7f6e6f742d626f72726f77657200000000000000000000000000000000000000005f82015250565b5f611301600c83611006565b915061130c826112cd565b602082019050919050565b5f6020820190508181035f83015261132e816112f5565b9050919050565b7f616c72656164792d6163636570746564000000000000000000000000000000005f82015250565b5f611369601083611006565b915061137482611335565b602082019050919050565b5f6020820190508181035f8301526113968161135d565b9050919050565b5f6020820190506113b05f830184610ddb565b9291505056fea2646970667358221220481ff8a40e69bb10a645d27a34c30ceeb8bbec7818cb8878d8866c553c88e29164736f6c63430008180033",
  "linkReferences": {},
  "deployedLinkReferences": {},
  "immutableReferences": {},
  "inputSourceName": "project/examples/private-lending-premium/contracts/PrivateLendingPremium.sol",
  "buildInfoId": "solc-0_8_24-c87bbb38104db827434223d5a4ba7b195ca4c66e"
}