{
  "_format": "hh3-artifact-1",
  "contractName": "ArithmeticPremium",
  "sourceName": "examples/arithmetic-premium/contracts/ArithmeticPremium.sol",
  "abi": [
    {
      "inputs": [],
      "stateMutability": "nonpayable",
      "type": "constructor"
    },
    {
      "anonymous": false,
      "inputs": [
        {
          "indexed": true,
          "internalType": "address",
          "name": "setter",
          "type": "address"
        }
      ],
      "name": "ASet",
      "type": "event"
    },
    {
      "anonymous": false,
      "inputs": [
        {
          "indexed": true,
          "internalType": "address",
          "name": "caller",
          "type": "address"
        }
      ],
      "name": "Added",
      "type": "event"
    },
    {
      "anonymous": false,
      "inputs": [
        {
          "indexed": true,
          "internalType": "address",
          "name": "setter",
          "type": "address"
        }
      ],
      "name": "BSet",
      "type": "event"
    },
    {
      "anonymous": false,
      "inputs": [
        {
          "indexed": true,
          "internalType": "address",
          "name": "caller",
          "type": "address"
        }
      ],
      "name": "Multiplied",
      "type": "event"
    },
    {
      "anonymous": false,
      "inputs": [
        {
          "indexed": true,
          "internalType": "address",
          "name": "caller",
          "type": "address"
        }
      ],
      "name": "Subtracted",
      "type": "event"
    },
    {
      "inputs": [],
      "name": "addAB",
      "outputs": [],
      "stateMutability": "nonpayable",
      "type": "function"
    },
    {
      "inputs": [
        {
          "internalType": "uint32",
          "name": "plain",
          "type": "uint32"
        }
      ],
      "name": "antiPattern_decryptThenCompute",
      "outputs": [],
      "stateMutability": "nonpayable",
      "type": "function"
    },
    {
      "inputs": [],
      "name": "antiPattern_heavyMultiply",
      "outputs": [],
      "stateMutability": "nonpayable",
      "type": "function"
    },
    {
      "inputs": [],
      "name": "getA",
      "outputs": [
        {
          "internalType": "euint32",
          "name": "",
          "type": "uint32"
        }
      ],
      "stateMutability": "view",
      "type": "function"
    },
    {
      "inputs": [],
      "name": "getB",
      "outputs": [
        {
          "internalType": "euint32",
          "name": "",
          "type": "uint32"
        }
      ],
      "stateMutability": "view",
      "type": "function"
    },
    {
      "inputs": [],
      "name": "mulAB",
      "outputs": [],
      "stateMutability": "nonpayable",
      "type": "function"
    },
    {
      "inputs": [
        {
          "internalType": "uint32",
          "name": "factor",
          "type": "uint32"
        }
      ],
      "name": "mulAByConstant",
      "outputs": [],
      "stateMutability": "nonpayable",
      "type": "function"
    },
    {
      "inputs": [
        {
          "internalType": "euint32",
          "name": "a",
          "type": "uint32"
        }
      ],
      "name": "setA",
      "outputs": [],
      "stateMutability": "nonpayable",
      "type": "function"
    },
    {
      "inputs": [
        {
          "internalType": "euint32",
          "name": "b",
          "type": "uint32"
        }
      ],
      "name": "setB",
      "outputs": [],
      "stateMutability": "nonpayable",
      "type": "function"
    },
    {
      "inputs": [
        {
          "internalType": "address",
          "name": "newOwner",
          "type": "address"
        }
      ],
      "name": "setOwner",
      "outputs": [],
      "stateMutability": "nonpayable",
      "type": "function"
    },
    {
      "inputs": [],
      "name": "subAB",
      "outputs": [],
      "stateMutability": "nonpayable",
      "type": "function"
    }
  ],
  "bytecode": "0x608060405234801561000f575f80fd5b506040518060400160405280601181526020017f41726974686d657469635072656d69756d0000000000000000000000000000008152506040518060400160405280600181526020017f31000000000000000000000000000000000000000000000000000000000000008152505050335f60086101000a81548173ffffffffffffffffffffffffffffffffffffffff021916908373ffffffffffffffffffffffffffffffffffffffff1602179055506100cd5f61011e60201b60201c565b5f806101000a81548163ffffffff021916908363ffffffff1602179055506100fa5f61011e60201b60201c565b5f60046101000a81548163ffffffff021916908363ffffffff160217905550610127565b5f819050919050565b6109d2806101345f395ff3fe608060405234801561000f575f80fd5b50600436106100a7575f3560e01c8063830fabbd1161006f578063830fabbd14610125578063992dd7221461012f578063a1c5191514610139578063bd8aad2714610157578063d46300fd14610173578063e8c704f214610191576100a7565b806313af4035146100ab578063222786a2146100c75780634f103353146100d15780635c8fd893146100ed578063776f2baf14610109575b5f80fd5b6100c560048036038101906100c091906106af565b61019b565b005b6100cf61026d565b005b6100eb60048036038101906100e69190610713565b6102fa565b005b61010760048036038101906101029190610768565b610360565b005b610123600480360381019061011e9190610768565b610363565b005b61012d610459565b005b6101376104e6565b005b6101416104e8565b60405161014e91906107cc565b60405180910390f35b610171600480360381019061016c9190610713565b610500565b005b61017b610565565b60405161018891906107cc565b60405180910390f35b61019961057c565b005b5f60089054906101000a900473ffffffffffffffffffffffffffffffffffffffff1673ffffffffffffffffffffffffffffffffffffffff163373ffffffffffffffffffffffffffffffffffffffff161461022a576040517f08c379a00000000000000000000000000000000000000000000000000000000081526004016102219061083f565b60405180910390fd5b805f60086101000a81548173ffffffffffffffffffffffffffffffffffffffff021916908373ffffffffffffffffffffffffffffffffffffffff16021790555050565b6102975f8054906101000a900463ffffffff165f60049054906101000a900463ffffffff16610609565b5f806101000a81548163ffffffff021916908363ffffffff1602179055503373ffffffffffffffffffffffffffffffffffffffff167fdcfefddfe354ab15def7a2a6a8758e2ad4100c920318c627db94e29d833e156760405160405180910390a2565b805f60046101000a81548163ffffffff021916908363ffffffff1602179055503373ffffffffffffffffffffffffffffffffffffffff167fe9c5d87597d87ae5c634f19d50296e678746360e3a79177fe1b6d784d844333e60405160405180910390a250565b50565b6101008163ffffffff1611156103ae576040517f08c379a00000000000000000000000000000000000000000000000000000000081526004016103a5906108a7565b60405180910390fd5b5f6103b85f61061e565b90505f5b8263ffffffff168110156103f2576103e3825f8054906101000a900463ffffffff16610609565b915080806001019150506103bc565b50805f806101000a81548163ffffffff021916908363ffffffff1602179055503373ffffffffffffffffffffffffffffffffffffffff167f059ba091b4ef3abc393bc86e6a4e970082fbaae627c07754ac98b4de95a6152b60405160405180910390a25050565b6104835f8054906101000a900463ffffffff165f60049054906101000a900463ffffffff16610627565b5f806101000a81548163ffffffff021916908363ffffffff1602179055503373ffffffffffffffffffffffffffffffffffffffff167f19d5ff8459b9a2d23cf5ddaa66d23cfe5926d0bd02168102b464713cf730fc4f60405160405180910390a2565b565b5f8060049054906101000a900463ffffffff16905090565b805f806101000a81548163ffffffff021916908363ffffffff1602179055503373ffffffffffffffffffffffffffffffffffffffff167fd2b7cb30c17b00ccb6b165487ab8c1132582f9ae9b8a668ca9eab53ca93a410160405160405180910390a250565b5f805f9054906101000a900463ffffffff16905090565b6105a65f8054906101000a900463ffffffff165f60049054906101000a900463ffffffff1661063c565b5f806101000a81548163ffffffff021916908363ffffffff1602179055503373ffffffffffffffffffffffffffffffffffffffff167f059ba091b4ef3abc393bc86e6a4e970082fbaae627c07754ac98b4de95a6152b60405160405180910390a2565b5f818361061691906108f2565b905092915050565b5f819050919050565b5f81836106349190610929565b905092915050565b5f81836106499190610960565b905092915050565b5f80fd5b5f73ffffffffffffffffffffffffffffffffffffffff82169050919050565b5f61067e82610655565b9050919050565b61068e81610674565b8114610698575f80fd5b50565b5f813590506106a981610685565b92915050565b5f602082840312156106c4576106c3610651565b5b5f6106d18482850161069b565b91505092915050565b5f63ffffffff82169050919050565b6106f2816106da565b81146106fc575f80fd5b50565b5f8135905061070d816106e9565b92915050565b5f6020828403121561072857610727610651565b5b5f610735848285016106ff565b91505092915050565b610747816106da565b8114610751575f80fd5b50565b5f813590506107628161073e565b92915050565b5f6020828403121561077d5761077c610651565b5b5f61078a84828501610754565b91505092915050565b5f819050919050565b5f6107b66107b16107ac846106da565b610793565b6106da565b9050919050565b6107c68161079c565b82525050565b5f6020820190506107df5f8301846107bd565b92915050565b5f82825260208201905092915050565b7f6f6e6c792d6f776e6572000000000000000000000000000000000000000000005f82015250565b5f610829600a836107e5565b9150610834826107f5565b602082019050919050565b5f6020820190508181035f8301526108568161081d565b9050919050565b7f666163746f722d746f6f2d6c61726765000000000000000000000000000000005f82015250565b5f6108916010836107e5565b915061089c8261085d565b602082019050919050565b5f6020820190508181035f8301526108be81610885565b9050919050565b7f4e487b71000000000000000000000000000000000000000000000000000000005f52601160045260245ffd5b5f6108fc826106da565b9150610907836106da565b9250828201905063ffffffff811115610923576109226108c5565b5b92915050565b5f610933826106da565b915061093e836106da565b9250828203905063ffffffff81111561095a576109596108c5565b5b92915050565b5f61096a826106da565b9150610975836106da565b9250828202610983816106da565b9150808214610995576109946108c5565b5b509291505056fea26469706673582212206bb31e06568e3a36944dca2c8da4bd8f7edb0be9a4e56c20a72b78530d7c4b3164736f6c63430008180033",
  "linkReferences": {},
  "deployedLinkReferences": {},
  "immutableReferences": {},
  "inputSourceName": "project/examples/arithmetic-premium/contracts/ArithmeticPremium.sol",
  "buildInfoId": "solc-0_8_24-c87bbb38104db827434223d5a4ba7b195ca4c66e"
}