{
  "_format": "hh3-artifact-1",
  "contractName": "DAOVotingPremium",
  "sourceName": "examples/dao-voting-premium/contracts/DAOVotingPremium.sol",
  "abi": [
    {
      "inputs": [],
      "stateMutability": "nonpayable",
      "type": "constructor"
    },
    {
      "anonymous": false,
      "inputs": [
        {
          "indexed": true,
          "internalType": "uint256",
          "name": "id",
          "type": "uint256"
        },
        {
          "indexed": true,
          "internalType": "address",
          "name": "proposer",
          "type": "address"
        }
      ],
      "name": "ProposalCreated",
      "type": "event"
    },
    {
      "anonymous": false,
      "inputs": [
        {
          "indexed": true,
          "internalType": "uint256",
          "name": "id",
          "type": "uint256"
        },
        {
          "indexed": true,
          "internalType": "address",
          "name": "voter",
          "type": "address"
        },
        {
          "indexed": false,
          "internalType": "euint32",
          "name": "encryptedYes",
          "type": "uint32"
        }
      ],
      "name": "VoteCast",
      "type": "event"
    },
    {
      "anonymous": false,
      "inputs": [
        {
          "indexed": true,
          "internalType": "uint256",
          "name": "id",
          "type": "uint256"
        }
      ],
      "name": "VotingClosed",
      "type": "event"
    },
    {
      "anonymous": false,
      "inputs": [
        {
          "indexed": true,
          "internalType": "uint256",
          "name": "id",
          "type": "uint256"
        },
        {
          "indexed": true,
          "internalType": "address",
          "name": "winner",
          "type": "address"
        },
        {
          "indexed": false,
          "internalType": "euint32",
          "name": "encryptedYesTally",
          "type": "uint32"
        }
      ],
      "name": "VotingFinalized",
      "type": "event"
    },
    {
      "inputs": [
        {
          "internalType": "uint256",
          "name": "id",
          "type": "uint256"
        },
        {
          "internalType": "euint32",
          "name": "encryptedYes",
          "type": "uint32"
        }
      ],
      "name": "castVote",
      "outputs": [],
      "stateMutability": "nonpayable",
      "type": "function"
    },
    {
      "inputs": [
        {
          "internalType": "uint256",
          "name": "id",
          "type": "uint256"
        }
      ],
      "name": "closeVoting",
      "outputs": [],
      "stateMutability": "nonpayable",
      "type": "function"
    },
    {
      "inputs": [
        {
          "internalType": "euint32",
          "name": "metadata",
          "type": "uint32"
        }
      ],
      "name": "createProposal",
      "outputs": [
        {
          "internalType": "uint256",
          "name": "",
          "type": "uint256"
        }
      ],
      "stateMutability": "nonpayable",
      "type": "function"
    },
    {
      "inputs": [
        {
          "internalType": "uint256",
          "name": "id",
          "type": "uint256"
        },
        {
          "internalType": "address",
          "name": "chosenWinner",
          "type": "address"
        },
        {
          "internalType": "euint32",
          "name": "encryptedYesTally",
          "type": "uint32"
        }
      ],
      "name": "finalizeVoting",
      "outputs": [],
      "stateMutability": "nonpayable",
      "type": "function"
    },
    {
      "inputs": [
        {
          "internalType": "uint256",
          "name": "",
          "type": "uint256"
        },
        {
          "internalType": "address",
          "name": "",
          "type": "address"
        }
      ],
      "name": "hasVoted",
      "outputs": [
        {
          "internalType": "bool",
          "name": "",
          "type": "bool"
        }
      ],
      "stateMutability": "view",
      "type": "function"
    },
    {
      "inputs": [],
      "name": "owner",
      "outputs": [
        {
          "internalType": "address",
          "name": "",
          "type": "address"
        }
      ],
      "stateMutability": "view",
      "type": "function"
    },
    {
      "inputs": [],
      "name": "proposalCount",
      "outputs": [
        {
          "internalType": "uint256",
          "name": "",
          "type": "uint256"
        }
      ],
      "stateMutability": "view",
      "type": "function"
    },
    {
      "inputs": [
        {
          "internalType": "uint256",
          "name": "",
          "type": "uint256"
        }
      ],
      "name": "proposals",
      "outputs": [
        {
          "internalType": "address",
          "name": "proposer",
          "type": "address"
        },
        {
          "internalType": "euint32",
          "name": "metadata",
          "type": "uint32"
        },
        {
          "internalType": "euint32",
          "name": "encryptedYesTally",
          "type": "uint32"
        },
        {
          "internalType": "euint32",
          "name": "encryptedNoTally",
          "type": "uint32"
        },
        {
          "internalType": "enum DAOVotingPremium.Phase",
          "name": "phase",
          "type": "uint8"
        },
        {
          "internalType": "address",
          "name": "winner",
          "type": "address"
        },
        {
          "internalType": "bool",
          "name": "exists",
          "type": "bool"
        }
      ],
      "stateMutability": "view",
      "type": "function"
    }
  ],
  "bytecode": "0x608060405234801561000f575f80fd5b50335f806101000a81548173ffffffffffffffffffffffffffffffffffffffff021916908373ffffffffffffffffffffffffffffffffffffffff1602179055506113418061005c5f395ff3fe608060405234801561000f575f80fd5b5060043610610086575f3560e01c80638e71780c116100595780638e71780c1461012a578063bf54067a14610146578063d2111a7214610176578063da35c6641461019257610086565b8063013cf08b1461008a57806312a5c042146100c057806343859632146100dc5780638da5cb5b1461010c575b5f80fd5b6100a4600480360381019061009f9190610c76565b6101b0565b6040516100b79796959493929190610db5565b60405180910390f35b6100da60048036038101906100d59190610e76565b610273565b005b6100f660048036038101906100f19190610ec6565b6104fd565b6040516101039190610f04565b60405180910390f35b610114610527565b6040516101219190610f1d565b60405180910390f35b610144600480360381019061013f9190610f36565b61054a565b005b610160600480360381019061015b9190610f74565b6107df565b60405161016d9190610fae565b60405180910390f35b610190600480360381019061018b9190610c76565b610a3c565b005b61019a610c1b565b6040516101a79190610fae565b60405180910390f35b6001602052805f5260405f205f91509050805f015f9054906101000a900473ffffffffffffffffffffffffffffffffffffffff1690805f0160149054906101000a900463ffffffff1690805f0160189054906101000a900463ffffffff1690805f01601c9054906101000a900463ffffffff1690806001015f9054906101000a900460ff16908060010160019054906101000a900473ffffffffffffffffffffffffffffffffffffffff16908060010160159054906101000a900460ff16905087565b5f8054906101000a900473ffffffffffffffffffffffffffffffffffffffff1673ffffffffffffffffffffffffffffffffffffffff163373ffffffffffffffffffffffffffffffffffffffff1614610300576040517f08c379a00000000000000000000000000000000000000000000000000000000081526004016102f790611021565b60405180910390fd5b60015f8481526020019081526020015f2060010160159054906101000a900460ff16610361576040517f08c379a000000000000000000000000000000000000000000000000000000000815260040161035890611089565b60405180910390fd5b6001600281111561037557610374610d28565b5b60015f8581526020019081526020015f206001015f9054906101000a900460ff1660028111156103a8576103a7610d28565b5b146103e8576040517f08c379a00000000000000000000000000000000000000000000000000000000081526004016103df906110f1565b60405180910390fd5b600260015f8581526020019081526020015f206001015f6101000a81548160ff0219169083600281111561041f5761041e610d28565b5b02179055508160015f8581526020019081526020015f2060010160016101000a81548173ffffffffffffffffffffffffffffffffffffffff021916908373ffffffffffffffffffffffffffffffffffffffff1602179055508060015f8581526020019081526020015f205f0160186101000a81548163ffffffff021916908363ffffffff1602179055508173ffffffffffffffffffffffffffffffffffffffff16837f84be391bcc9d1822b2cb5769c775b69f6393913210be225e5ea632149eb22b8a836040516104f0919061110f565b60405180910390a3505050565b6003602052815f5260405f20602052805f5260405f205f915091509054906101000a900460ff1681565b5f8054906101000a900473ffffffffffffffffffffffffffffffffffffffff1681565b60015f8381526020019081526020015f2060010160159054906101000a900460ff166105ab576040517f08c379a00000000000000000000000000000000000000000000000000000000081526004016105a290611089565b60405180910390fd5b5f60028111156105be576105bd610d28565b5b60015f8481526020019081526020015f206001015f9054906101000a900460ff1660028111156105f1576105f0610d28565b5b14610631576040517f08c379a000000000000000000000000000000000000000000000000000000000815260040161062890611172565b60405180910390fd5b60035f8381526020019081526020015f205f3373ffffffffffffffffffffffffffffffffffffffff1673ffffffffffffffffffffffffffffffffffffffff1681526020019081526020015f205f9054906101000a900460ff16156106ca576040517f08c379a00000000000000000000000000000000000000000000000000000000081526004016106c1906111da565b60405180910390fd5b6106f760015f8481526020019081526020015f205f0160189054906101000a900463ffffffff1682610c21565b60015f8481526020019081526020015f205f0160186101000a81548163ffffffff021916908363ffffffff160217905550600160035f8481526020019081526020015f205f3373ffffffffffffffffffffffffffffffffffffffff1673ffffffffffffffffffffffffffffffffffffffff1681526020019081526020015f205f6101000a81548160ff0219169083151502179055503373ffffffffffffffffffffffffffffffffffffffff16827fb59f842f6f9478ccadcec03ac749ccd7fc4020c7eed7e4fdc649f7f6f259b234836040516107d3919061110f565b60405180910390a35050565b5f8060025f8154809291906107f390611225565b9190505590506040518060e001604052803373ffffffffffffffffffffffffffffffffffffffff1681526020018463ffffffff1681526020016108355f610c36565b63ffffffff1681526020016108495f610c36565b63ffffffff1681526020015f600281111561086757610866610d28565b5b81526020015f73ffffffffffffffffffffffffffffffffffffffff1681526020016001151581525060015f8381526020019081526020015f205f820151815f015f6101000a81548173ffffffffffffffffffffffffffffffffffffffff021916908373ffffffffffffffffffffffffffffffffffffffff1602179055506020820151815f0160146101000a81548163ffffffff021916908363ffffffff1602179055506040820151815f0160186101000a81548163ffffffff021916908363ffffffff1602179055506060820151815f01601c6101000a81548163ffffffff021916908363ffffffff1602179055506080820151816001015f6101000a81548160ff021916908360028111156109805761097f610d28565b5b021790555060a08201518160010160016101000a81548173ffffffffffffffffffffffffffffffffffffffff021916908373ffffffffffffffffffffffffffffffffffffffff16021790555060c08201518160010160156101000a81548160ff0219169083151502179055509050503373ffffffffffffffffffffffffffffffffffffffff16817fcd423cc1203c0af96b9b3d68d73b3064a69de2d14450bb7181c5e5df2132b35860405160405180910390a380915050919050565b5f8054906101000a900473ffffffffffffffffffffffffffffffffffffffff1673ffffffffffffffffffffffffffffffffffffffff163373ffffffffffffffffffffffffffffffffffffffff1614610ac9576040517f08c379a0000000000000000000000000000000000000000000000000000000008152600401610ac090611021565b60405180910390fd5b60015f8281526020019081526020015f2060010160159054906101000a900460ff16610b2a576040517f08c379a0000000000000000000000000000000000000000000000000000000008152600401610b2190611089565b60405180910390fd5b5f6002811115610b3d57610b3c610d28565b5b60015f8381526020019081526020015f206001015f9054906101000a900460ff166002811115610b7057610b6f610d28565b5b14610bb0576040517f08c379a0000000000000000000000000000000000000000000000000000000008152600401610ba7906112b6565b60405180910390fd5b6001805f8381526020019081526020015f206001015f6101000a81548160ff02191690836002811115610be657610be5610d28565b5b0217905550807f8e9b46a70b3967bc9ea56ca61732c363a191fac88ae3ba011f4e030711c9011760405160405180910390a250565b60025481565b5f8183610c2e91906112d4565b905092915050565b5f819050919050565b5f80fd5b5f819050919050565b610c5581610c43565b8114610c5f575f80fd5b50565b5f81359050610c7081610c4c565b92915050565b5f60208284031215610c8b57610c8a610c3f565b5b5f610c9884828501610c62565b91505092915050565b5f73ffffffffffffffffffffffffffffffffffffffff82169050919050565b5f610cca82610ca1565b9050919050565b610cda81610cc0565b82525050565b5f63ffffffff82169050919050565b5f819050919050565b5f610d12610d0d610d0884610ce0565b610cef565b610ce0565b9050919050565b610d2281610cf8565b82525050565b7f4e487b71000000000000000000000000000000000000000000000000000000005f52602160045260245ffd5b60038110610d6657610d65610d28565b5b50565b5f819050610d7682610d55565b919050565b5f610d8582610d69565b9050919050565b610d9581610d7b565b82525050565b5f8115159050919050565b610daf81610d9b565b82525050565b5f60e082019050610dc85f83018a610cd1565b610dd56020830189610d19565b610de26040830188610d19565b610def6060830187610d19565b610dfc6080830186610d8c565b610e0960a0830185610cd1565b610e1660c0830184610da6565b98975050505050505050565b610e2b81610cc0565b8114610e35575f80fd5b50565b5f81359050610e4681610e22565b92915050565b610e5581610ce0565b8114610e5f575f80fd5b50565b5f81359050610e7081610e4c565b92915050565b5f805f60608486031215610e8d57610e8c610c3f565b5b5f610e9a86828701610c62565b9350506020610eab86828701610e38565b9250506040610ebc86828701610e62565b9150509250925092565b5f8060408385031215610edc57610edb610c3f565b5b5f610ee985828601610c62565b9250506020610efa85828601610e38565b9150509250929050565b5f602082019050610f175f830184610da6565b92915050565b5f602082019050610f305f830184610cd1565b92915050565b5f8060408385031215610f4c57610f4b610c3f565b5b5f610f5985828601610c62565b9250506020610f6a85828601610e62565b9150509250929050565b5f60208284031215610f8957610f88610c3f565b5b5f610f9684828501610e62565b91505092915050565b610fa881610c43565b82525050565b5f602082019050610fc15f830184610f9f565b92915050565b5f82825260208201905092915050565b7f6e6f742d6f776e657200000000000000000000000000000000000000000000005f82015250565b5f61100b600983610fc7565b915061101682610fd7565b602082019050919050565b5f6020820190508181035f83015261103881610fff565b9050919050565b7f6e6f2d70726f706f73616c0000000000000000000000000000000000000000005f82015250565b5f611073600b83610fc7565b915061107e8261103f565b602082019050919050565b5f6020820190508181035f8301526110a081611067565b9050919050565b7f6e6f742d636c6f736564000000000000000000000000000000000000000000005f82015250565b5f6110db600a83610fc7565b91506110e6826110a7565b602082019050919050565b5f6020820190508181035f830152611108816110cf565b9050919050565b5f6020820190506111225f830184610d19565b92915050565b7f6e6f742d6f70656e0000000000000000000000000000000000000000000000005f82015250565b5f61115c600883610fc7565b915061116782611128565b602082019050919050565b5f6020820190508181035f83015261118981611150565b9050919050565b7f616c72656164792d766f746564000000000000000000000000000000000000005f82015250565b5f6111c4600d83610fc7565b91506111cf82611190565b602082019050919050565b5f6020820190508181035f8301526111f1816111b8565b9050919050565b7f4e487b71000000000000000000000000000000000000000000000000000000005f52601160045260245ffd5b5f61122f82610c43565b91507fffffffffffffffffffffffffffffffffffffffffffffffffffffffffffffffff8203611261576112606111f8565b5b600182019050919050565b7f77726f6e672d70686173650000000000000000000000000000000000000000005f82015250565b5f6112a0600b83610fc7565b91506112ab8261126c565b602082019050919050565b5f6020820190508181035f8301526112cd81611294565b9050919050565b5f6112de82610ce0565b91506112e983610ce0565b9250828201905063ffffffff811115611305576113046111f8565b5b9291505056fea26469706673582212207b843422361455eaa53c69edcf20807255f8d1cc3077ca5e35eab27008139f8a64736f6c63430008180033",
  "linkReferences": {},
  "deployedLinkReferences": {},
  "immutableReferences": {},
  "inputSourceName": "project/examples/dao-voting-premium/contracts/DAOVotingPremium.sol",
  "buildInfoId": "solc-0_8_24-c87bbb38104db827434223d5a4ba7b195ca4c66e"
}